:08180000E622040000000000D4
:08184800F20E04000000000094
:0818A000F60F04000000000037
:0818E800240F040000000000C1
:08193000560F04000000000046
:081BF8003220EF0083E0200021
:101C0000008041001040BA000160EF0000000600B3
:101C10006D6500007267000065640000202500000B
:101C200064200000616E0000642000002564000054
:101C3000206900006E7400006F3A0000202500004B
:101C4000642000000A0000003220EF0003E32000BF
:101C5000008041001040BA000160EF000000060063
:101C60006D650000726700006564000020250000BB
:101C700064200000616E0000642000002564000004
:101C8000206900006E7400006F3A000020250000FB
:101C9000302E0000326600000A0000003220EF0003
:101CA000A3E52000008041001040BA000160EF0071
:101CB00000000600646F00006E6500000000000078
:101CC0003220EF00C3E62000008041001040BA003F
:101CD0000160EF0000000600725F0000612000005C
:101CE0003D200000256400000A0000003220EF00C3
:101CF00023E82000008041001040BA000160EF009E
:101D000000000600725F0000622000003D2000001D
:101D1000256400000A0000003220EF0083E9200063
:101D2000008041001040BA000160EF000000060092
:101D3000706F000073690000746900006F6E00002E
:101D4000203D000020250000642C0000202500001C
:101D5000640A0000000000003220EF0083EB200046
:101D6000008041001040BA000160EF000000060052
:101D7000725F00007A2000003D2000002564000012
:101D8000000000003220EF00E3EC20000080410062
:101D90001040BA000160EF0000000600706F000004
:101DA00073690000746900006F6E0000203D000040
:101DB00020250000640A0000000000003220EF002F
:101DC000A3EE2000008041001040BA000160EF0047
:101DD0000000060072650000736500006E6400007C
:101DE000000000004200F8003600F8003200F80061
:101DF000801F7800200020000C000900B01F780030
:101E00000809E20004003A00B028EC004220AF00CC
:101E1000B228EC0003003700B028ED004200AE000D
:101E2000B228ED008400A900A00120000C000900E8
:101E30004F1078004F0078003200F9003600F900AA
:101E40004200F900004006004200F8003600F800A9
:101E50003200F800801F7800200020000C000900EC
:101E6000B01F78000A09E20004003A00B428EC0030
:101E70004220AF00B628EC0003003700B428ED0084
:101E80004200AE00B628ED008680A900A001200027
:101E90000C0009004F1078004F0078003200F90064
:101EA0003600F9004200F900004006004200F80048
:101EB0003600F8003200F800801F78002000200073
:101EC0000C000900B01F78000609E20004003A0087
:101ED000B828EC004220AF00BA28EC00030037001D
:101EE000B828ED004200AE00BA28ED0087A0A90096
:101EF000A00120000C0009004F1078004F0078006E
:101F00003200F9003600F9004200F90000400600F6
:101F1000851F78002209E20032003A0020C9BF0084
:101F20000000FB006200E1000D003D00944C8000C9
:101F3000F48FB20008003A0020C9BF000000FB0087
:101F4000C4902000840240009289BF008042980023
:101F50002069EC00010037002069EF002100370004
:101F600020C9BF000000FB006200E1000A003A0047
:101F700020C9BF000000FB00C49020008402400084
:101F80009289BF008042980092C9BF0021E9B70042
:101F90002069EC001300370020C9BF000000FB00DF
:101FA0006200E1000F00340020C9BF000000FB0008
:101FB000C4902000840240009289BF0080429800B3
:101FC00020C9BF000000FB006900E10004003500EB
:101FD00014002000144988002069EF000100370038
:101FE0002069EC00CF027800000006004200F800F3
:101FF0003600F8003200F800801F78002000200032
:102000000C000900B01F78002202AE00FEFF37006E
:10201000301180008EE9B7008F69EF008E09F8005B
:102020009209F900880F0200000000008560A900F5
:10203000A00120000C0009004F1078004F0078002C
:102040003200F9003600F9004200F90000400600B5
:102050009400A8008200A9009680A8008220A90010
:1020600097A0A8008240A900000006002629EF00E2
:1020700015C9BF0028E9B7002A29EF00544980009C
:102080006820E10009003D00C49020005349800011
:102090000480410000027800144078000160EF00E5
:1020A0002629B4002A29EC00F4FF370034498000C7
:1020B00003102000110009000302D80031498800F4
:1020C00028C9BF000160EF002609E30004003A00C0
:1020D00014002000040088000300370002003700CD
:1020E0000020EF0000003700000006000000E000C4
:1020F0004220AF00040037007B3E090000000000D2
:102100000000E900FCFF3A0000000600851F78008F
:1021100054498000430620000418E10002003D00FD
:10212000440620005449880054498000C3F92F0018
:102130000418E10002003400C4F92F00544988005B
:10214000544980006020E1000A003400CDE2A9007B
:10215000C9E2A900CD22A800C922A9000629EF00E2
:10216000544980006220B80080027800650C880025
:102170001A003700544980006020E1000E003D0045
:10218000CDE2A800C9E2A900CD22A900C922A90078
:1021900014002000344888000400200053498000C7
:1021A00003005200000278006220B800800278002C
:1021B000650C880009003700CDE2A800C9E2A9003B
:1021C000CD22A800C922A90044062000640C880082
:1021D000400620007610020000000000CF027800C8
:1021E00000000600851F7800844980004306200017
:1021F0000418E10002003D004406200084498800E4
:1022000084498000C3F92F000418E1000200340063
:10221000C4F92F0084498800844980006020E100CF
:102220000A003400C422A800C022A900C402A900E8
:10223000C002A9000829EF00844980006220B8008C
:1022400080027800350C88001A003700844980002D
:102250006020E1000E003D00C422A900C022A900B8
:10226000C402A800C002A90014002000444888004D
:10227000040020008349800003005200000278001F
:102280006220B80080027800350C88000900370011
:10229000C422A800C022A900C402A800C002A9004C
:1022A00044062000340C880040062000761002000E
:1022B00000000000CF02780000000600851F7800B3
:1022C00084498000430620000418E10002003D001C
:1022D000440620008449880084498000C3F92F0007
:1022E0000418E10002003400C4F92F00844988007A
:1022F000844980006020E1000A003400CC42A8003C
:10230000C842A900CC62A900C862A9000A29EF004E
:10231000844980006220B80080027800050C8800A3
:102320001A003700844980006020E1000E003D0063
:10233000CC42A900C842A900CC62A800C862A9008A
:1023400014002000544888000400200083498000C5
:1023500003005200000278006220B800800278007A
:10236000050C880009003700CC42A800C842A9002B
:10237000CC62A800C862A90044062000040C8800B2
:10238000400620007610020000000000CF02780016
:1023900000000600861F7800871F7800881F7800DD
:1023A000891F78000002EB008002EB000003EB00C5
:1023B0008003EB00030469001100320008022000D2
:1023C0004200A9000080D2008180D2000482D200A5
:1023D0008582D2000328E10001003A0002A0E1005A
:1023E000030039000202520083825A004200A80012
:1023F0000683D2008783D2000804E900F0FF3A0088
:102400008700780006007800CF0478004F04780039
:10241000CF0378004F03780000000600851F780086
:10242000C500200007000900B51F780001F0A600D4
:10243000070037000000EA000100320002003A0005
:102440008100EA00010037008180EA000480A000DA
:102450008002EB0000037800810378000406780016
:1024600004F0A1000404E00001003A001800370065
:10247000EB42520016003900054252000CF0A60053
:102480000B0037000480A60007003700D0022000B0
:102490002322AF00FEFF370024A2B7000480A10072
:1024A0008502E9000A003300000320000100370024
:1024B000000220002322AF00FEFF370024A2B70055
:1024C0008502E900FBFF3B000480A7000442E9000D
:1024D000E8002000090020001000FA000C377C0002
:1024E0000884E900FDFF3B0084027800A40020007E
:1024F0000580A7000402E80005E0A0000CF0A7009A
:1025000005F0A0000504E000010032008542E9006A
:10251000040F7800150798000600780087007800FF
:1025200002A02C00A3B92300087122000DF0A10025
:102530004300A900CA110200000000000DF0A20033
:102540000DF0A700070037004007980051079800DA
:1025500000017800810178002E009000BE009000FC
:10256000F3FF3700420798005307980024079800AC
:10257000350798001E0278009E0290000603200096
:102580000000E00011003A0005E0A600110037004D
:102590000402E900040F78000400E0000D0032009E
:1025A0000524E100020032004200AF0018003700AD
:1025B00005F0A600030037000580A60010003700D4
:1025C00007003700060220000D00370005E0A100DB
:1025D000150798009E0290000580A60008003700AD
:1025E0000580A1001507980000057800D0022000A2
:1025F0002322AF00FEFF370024A2B7000A007800B4
:10260000004043002322AF00FEFF370024A2B700A2
:102610004E009000DE009000A20020008001EB0040
:102620006100E10001003200C1FF37000080FA00C4
:10263000A501200007000900CF127800CF02780022
:1026400000000600851F7800E4002000840C88004C
:10265000E4002000540C8800E4002000240C8800D2
:102660008C21EF008621EF008021EF00C4F92F00BC
:10267000544988008610020000000000C082A800B3
:10268000C282AF00F9FF37002A29EF00861002004E
:10269000000000004406200084498800F210020077
:1026A00000000000C4F92F00844988005E11020078
:1026B00000000000C902A800CB02AF00F5FF370000
:1026C0003029EF00F2100200000000003029EF0076
:1026D0005E11020000000000C4F92F008449880048
:1026E000F210020000000000C4F92F0084498800A5
:1026F0005E11020000000000C042A800C242AF000C
:10270000F5FF37003029EF00F21002000000000052
:102710003029EF005E11020000000000B088BF0009
:1027200091458000040020000E120200000000000D
:102730002322AF00FEFF3700C402200024118800CE
:102740002322AF00FEFF370004022000241188007E
:10275000B488BF00B1458000040020000E120200C2
:10276000000000002322AF00FEFF3700C40220005B
:10277000241188002322AF00FEFF3700040220004E
:1027800024118800B888BF00D145800004002000D3
:102790000E120200000000002322AF00FEFF3700EF
:1027A000A400200024118800B028EF00B228EF0018
:1027B000B428EF00B628EF00B828EF00BA28EF00E1
:1027C00001002000010078000160EF004E0E0200C1
:1027D000000000008100E8002322AF00FEFF370068
:1027E00024A2B700300020000008E600F5FF370003
:1027F0002229EF00CF02780000000600851F780034
:10280000C500200003000900B51F780000F0A600F5
:102810000C0037000000EA000480A00004F0A600CD
:1028200008003700801F7800D00220002322AF006C
:10283000FEFF370024A2B7004F0078000480A100FB
:102840000860ED008002EB008003780084047800CB
:1028500004F0A1000404E00006003A0009F0A7001B
:1028600002003700050020000F003700050020009F
:102870000D003700E64252000A0039000003200034
:1028800009F0A600000220002322AF00FEFF37005F
:1028900024A2B7008502E900FBFF3B0055002000A1
:1028A0000100370084027800640020000580A70042
:1028B0000402E80005E0A00009F0A70005F0A00070
:1028C00008712200110009008883D800AA140200B0
:1028D0000000000081037800883E200011000900FC
:1028E0008883D800AA140200000000008103780049
:1028F00048062000110009008883D800AA140200AD
:102900000000000081037800A800200011000900E9
:102910008883D800AA140200000000000980A600E5
:1029200005003700D00220002322AF00FEFF370051
:1029300024A2B7000980A1000003200000C04000CD
:10294000500188002322AF00FEFF370024A2B70009
:1029500020003700060320000000E0000E003A00CF
:1029600005E0A600160037000402E9000524E10096
:10297000020032004200AF00000006000000E0004C
:1029800005003A0005E0A6000D00370005F0A6009E
:10299000060220000A00370005E0A1000980A60019
:1029A0000700370000057800D00220002322AF0086
:1029B000FEFF370024A2B7000980A1000A007800BA
:1029C000004043002322AF00FEFF370024A2B700DF
:1029D000000006002501200003000900CF12780046
:1029E000CF02780000000600851F780036C9BF00BE
:1029F0000160EF000410200000A0B9008002780000
:102A0000C44980000960EF00048042008000EB00B0
:102A100000F0A7008080EB003AA9B700E1498800E8
:102A200001002000010078000160EF00FC0D0200B1
:102A3000000000008100E8002322AF00FEFF370005
:102A400024A2B700600020000008E600F5FF370070
:102A50003689BF0004002000FE13020000000000C1
:102A600091002000010078000160EF00FC0D0200E1
:102A7000000000008100E8002322AF00FEFF3700C5
:102A800024A2B700D00020000008E600F5FF3700C0
:102A90003889BF0004002000FE130200000000007F
:102AA00001012000010078000160EF00FC0D020030
:102AB000000000008100E8002322AF00FEFF370085
:102AC00024A2B700600120000008E600F5FF3700EF
:102AD0003A89BF00E1498000040020000E12020084
:102AE000000000002322AF00FEFF37000402200098
:102AF000241188002322AF00FEFF3700A40020002D
:102B0000241188003A09F8000000F900CF0278008B
:102B100000000600851F7800861F780000027800FC
:102B2000810278000000EB008000EB000600A100AD
:102B300005F0A600060037000600A0000402EA0027
:102B4000020032008582EA00010037008502EA00B7
:102B500085017200130032000001EB00610B2000C0
:102B60000270A700070037004200A9000482D200CB
:102B70008582D2000080D2000281D2008100E9006B
:102B8000F7FF3A000180FD004200A9008180D300D8
:102B900001F0A1000270A100814069000600A700B9
:102BA00001F0A0004F037800CF027800000006007B
:102BB000851F7800C500200004000900B51F7800BB
:102BC0000002780081027800830378000203780015
:102BD0004200A9004220A9008180D2000180FD00AE
:102BE000F10FB2000100E0004B0032004200A900EA
:102BF0004220A9008381D2000380FD00F30FB200C0
:102C00000300E000440032000080FB0001C04100EE
:102C100004003100F007B1003F0032003E003900EF
:102C2000020037001048B0003B00310007856A0001
:102C30004200A9004220A900F50FB2000570A000D3
:102C40004200A900F70FB2000770A0000621B800EB
:102C5000062CB80083014C00890078004200AF00C8
:102C60008100E8004200A900043CB80083014C0048
:102C700081804C00072CB80081004C000000E80067
:102C80000100E0004220AF000100370003003700E0
:102C90000300E0004220AF000500370001F0A7006C
:102CA000030037008381D2008180D2000000E90058
:102CB000010178004200A9000370A6000900370056
:102CC00007F02F00878161000310B0006001490008
:102CD0000200E00003003A000300E00001003A00B7
:102CE0000000E8000080FD004200A9004220A90089
:102CF0008080D3000AF0A70001F0A00002F0A1003C
:102D00000280FD00814069000380FD0003417800DE
:102D100002007800030037000000200001002000BE
:102D2000000037004501200004000900CF127800A0
:102D3000CF02780000000600851F7800C500200043
:102D400003000900B51F78008004EB00080028008C
:102D50004300AF0083016C000000E00003003A0074
:102D6000FAFF27000A8560004220AE0001057800C6
:102D70008A856900010378008303780003067800E0
:102D80004220A9004200A9000683D2000680FD006F
:102D9000F60FB2000600E000A10032004220A900B8
:102DA0004200A9008783D2000780FD00F70FB20020
:102DB0000700E0009F0032004220A9004200A90065
:102DC0000638E1009C003200A30033000900A10096
:102DD0000910A0000684530007037800F10FB20029
:102DE0000170A000F30FB2000370A0008702200062
:102DF0000838E100110033004220A9004200A90078
:102E00008180D3000080D3000804E900FAFF3A0073
:102E10000D003700870220000838E1000900330068
:102E20004220A9004200A9008381D3000281D3007F
:102E30000804E900FAFF3A000F00370002007800AA
:102E400083007800430037000BF0A6001100370024
:102E50000940A7008C0578000000EA00020032005B
:102E600081C0EA00010037008100EA000940A700A4
:102E70002B003700070037000BF0A60005003700D5
:102E80000201EA000200320083C1EA0001003700BB
:102E90008301EA00F50FB2004220A9004200A90018
:102EA0000200400083C048004200AF000930A0008B
:102EB0000900A700090037000910A700010037002A
:102EC0000B0037000BF0A700150037000930A700F2
:102ED000290037000960A0001E0037000BF0A70092
:102EE0000F0037000930A700230037001900370012
:102EF0000920A1000BF0A700040037008A05780024
:102F00000930A7001C003700360037000940A00038
:102F100001C8B2000170A700CDFF37008A05780014
:102F2000F10FB200810370000A0032000170A700A7
:102F3000080037004220A9004200A9000080D2000A
:102F40008180D2000603E9004220AF003100370043
:102F5000F6FF37000900A7008A0578000910A700CE
:102F60008C0578000950A6001A0037000AF0A70067
:102F70000080A0001B0037004200A80081C0D300E1
:102F80000080D3004200AF000950A0000603E80013
:102F9000200032000950A600080037000000E800B9
:102FA00006003A008140E80004003A0081C0D300E6
:102FB0000080D3000603E800160032000900A700D5
:102FC0008A0578000910A7008C0578004220AF0020
:102FD000100037000960A7008A0578000970A70073
:102FE0008C05780001017000230032000170A100FF
:102FF0000680FD004220A9004200A9000683D300FC
:1030000081006B0001F0A0000BF0A60001F0A10010
:1030100019003700000020000100200016003700D2
:103020000AF0A70083016C0002007800830078009A
:103030001100370010003700F30FB2000370A0003A
:10304000F10FB2000170A0000BF0A7000370A10007
:103050000920A00088FF370007045300F10FB200D9
:103060000170A000F30FB2000370A0000910A100CE
:103070000900A00067FF37002501200003000900B8
:10308000CF127800CF02780000000600000178001F
:1030900081017800014078000080FD0000F0A00070
:1030A0008180D2000180FD008180FB00E4082000C7
:1030B00081405200060032000000E00004003200AF
:1030C0004200A9000080D3008100E900FAFF3A0025
:1030D00003F0A600020037000000EA0000003700FD
:1030E00000000600851F7800861F7800871F780083
:1030F00084498000A3498000030052004EA9B70014
:1031000094498000B349800003005A0050A9B700D9
:103110003889BF004E09B40038A9B700844A80003E
:10312000D3498000048049003AA9B700054A8000CD
:103130004E89BF00814A80008A150200000000000D
:1031400000017800810178004289BF00214A800097
:10315000D8150200000000000003BE003889BF003F
:10316000D14980008A1502000000000000017800AB
:10317000810178004689BF00414A8000D8150200CD
:10318000000000004300A9000001780081017800E0
:1031900006007800870078009C16020000000000FE
:1031A0000003BE00744A8000E3498000030052001F
:1031B000844A8000F349800083005A008A15020087
:1031C0000000000000017800810178004A89BF00FA
:1031D000614A8000D8150200000000004300A900E9
:1031E00000017800810178000600780087007800EF
:1031F0009C160200000000004618020000000000BB
:10320000800A78004E09F8003C09F9005009F800DE
:103210003E09F900CF0378004F037800CF02780011
:1032200000000600851F7800861F78000FC9BF00C8
:10323000804278008502FB0010C9BF000CE0B70097
:103240000603FB00B5498800C6498800F414020053
:10325000000000008000EB0000F0A7008080EB0081
:1032600026A9B7004149880001002000010078002C
:103270000160EF00600E0200000000008100E80025
:103280002322AF00FEFF370024A2B7005000200029
:103290000008E600F5FF37002689BF000400200083
:1032A000FE130200000000002322AF00FEFF3700E3
:1032B000A40020002411880011C9BF0080427800BA
:1032C0008502FB0012C9BF000CE0B7000603FB003B
:1032D000B5498800C6498800F414020000000000C7
:1032E0008000EB0000F0A7008080EB002AA9B70067
:1032F0006149880001002000010078000160EF00B2
:10330000760E0200000000008100E8002322AF00DA
:10331000FEFF370024A2B700500020000008E6009E
:10332000F5FF37002A89BF0004002000FE130200C9
:10333000000000002322AF00FEFF3700A4002000A1
:1033400024118800344980008345800083025200A4
:10335000444980009345800003035A00050078002B
:103360008600780001F0A600040037000400200069
:10337000050052000400200086005A0080027800F8
:1033800001037800E088BF008000EB0000F0A70098
:103390008080EB000608E1001C00350002003C00C4
:1033A0000500E1001900390054498000A345800060
:1033B0008302520064498000B345800003035A0031
:1033C000050078008600780001F0A60004003700B0
:1033D00004002000050052000400200086005A006E
:1033E0008002780001037800E088BF008000EB00D5
:1033F00000F0A7008080EB000608E10048003C00D8
:10340000020035000500E100450031002609F80002
:103410003009F9002809F8003209F900B008F8006D
:103420003409F900B208F8003609F900CA08F800B2
:103430003809F9003A29EF00D608F8003C09F900EC
:103440003E29EF00BE08F8004009F900EE08F80038
:103450004209F900F008F8004409F900F208F80000
:103460004609F900F408F8004809F900F608F800E0
:103470004A09F900F808F8004C09F900721802002E
:10348000000000002A09F8003009F9002C09F800B2
:103490003209F900B408F8003409F900B608F80058
:1034A0003609F900CE08F8003809F9003A29EF008A
:1034B000DA08F8003C09F9003E29EF00C208F800DC
:1034C0004009F900FA08F8004209F900FC08F80080
:1034D0004409F900FE08F8004609F9000009F8005F
:1034E0004809F9000209F8004A09F9000409F8003E
:1034F0004C09F9007218020000000000BC08F80036
:103500003009F900F210020000000000C008F800C5
:103510003009F9005E1102000000000089FF370049
:103520003029EF00F2100200000000003029EF0007
:103530005E11020000000000010020000100780080
:103540000160EF008C0E0200000000008100E80026
:103550002322AF00FEFF370024A2B700A000200006
:103560000008E600F5FF3700B088BF0091458000F5
:10357000040020000E120200000000002322AF0011
:10358000FEFF3700C4022000241188002322AF0070
:10359000FEFF37000402200024118800B488BF0019
:1035A000B1458000040020000E120200000000005F
:1035B0002322AF00FEFF3700A40020002411880062
:1035C00001002000010078000160EF004E0E0200B3
:1035D000000000008100E8002322AF00FEFF37005A
:1035E00024A2B700300020000008E600F5FF3700F5
:1035F0002229EF004F037800CF0278000000060078
:10360000851F7800861F78000FC9BF0080427800B0
:103610008502FB0010C9BF000CE0B7000603FB00E9
:10362000B5498800C6498800F41402000000000073
:103630008000EB0000F0A7008080EB0026A9B70017
:103640004149880001002000010078000160EF007E
:10365000AC0E0200000000008100E8002322AF0051
:10366000FEFF370024A2B700500020000008E6004B
:10367000F5FF37002689BF0004002000FE1302007A
:103680000000000034498000C345800083025200DE
:1036900044498000D345800003035A0005007800A8
:1036A0008600780001F0A600040037000400200026
:1036B000050052000400200086005A0080027800B5
:1036C00001037800E088BF008000EB0000F0A70055
:1036D0008080EB000608E10026003C000200350077
:1036E0000500E100230031002609F8003009F90047
:1036F0002809F8003209F900B808F8003409F9007F
:10370000BA08F8003609F900D208F8003809F900BB
:103710003A29EF00DE08F8003C09F9003E29EF00E5
:10372000C608F8004009F900E208F8004209F9006B
:10373000E408F8004409F900E608F8004609F90031
:10374000E808F8004809F900EA08F8004A09F90011
:10375000EC08F8004C09F9007218020000000000A3
:10376000C408F8002A09F9008610020000000000D1
:10377000C4FF37002A29EF00861002000000000075
:1037800001002000010078000160EF00C20E02007D
:10379000000000008100E8002322AF00FEFF370098
:1037A00024A2B700A00020000008E600F5FF3700C3
:1037B000B888BF00D1458000040020000E1202002E
:1037C000000000002322AF00FEFF3700A40020000D
:1037D0002411880001002000010078000160EF0042
:1037E0004E0E0200000000008100E8002322AF001E
:1037F000FEFF370024A2B700300020000008E600DA
:10380000F5FF37002229EF004F037800CF02780040
:103810000000060064002000E40C880084A2200060
:10382000C40C8800401F2000761002000000000039
:1038300001002000010078000160EF004E0E020040
:10384000000000008100E8002322AF00FEFF3700E7
:1038500024A2B700300020000008E600F5FF370082
:103860002229EF000000060064002000E40C88001C
:1038700004FA2000C40C8800401F200076100200CB
:103880000000000001002000010078000160EF004E
:103890004E0E0200000000008100E8002322AF006D
:1038A000FEFF370024A2B700300020000008E60029
:1038B000F5FF37002229EF0000000600010020007C
:1038C000010078000160EF004E0E020000000000D1
:1038D0008100E8002322AF00FEFF370024A2B700DA
:1038E000300020000008E600F5FF37002229EF0035
:1038F00000000600851F7800861F7800E108200080
:103900000000E0001200320000F0A70004003700C1
:103910004200A9000080D2008100E900FAFF3700D0
:103920000180FD004200A9008180D30000F0A100C9
:103930000080FD00814068000040B20007003700B1
:10394000014078000170A0000140B2000300370080
:103950000000EB008000EB00000037004F03780010
:10396000CF02780000000600851F7800C500200007
:1039700004000900B51F78008004EB008384680010
:103980000103780080027800030478008203780045
:103990008180D2000180FD008180FB000100E000F9
:1039A0004E0032008381D2000380FD008381FB0042
:1039B0000300E000490032000000EB0003C05000AB
:1039C00003003900F047B000440031000300370025
:1039D0001048B100410039004000320085007800F5
:1039E000060178000270A000F20FB200F80FB200DA
:1039F0000870A0009A0120008001EB000002EB009B
:103A00008780500008015900020033000400310093
:103A100004003A0087804000080149000100370097
:103A20000400A0000A05E900070032004200A900D6
:103A30008180D2000281D2004200A9000482D2001B
:103A40008381D200EEFF37000005EB000380A70062
:103A500001003700060037004200A9008381D3002F
:103A60000370A1000482D3000A85D200020037004F
:103A70000000E900190032000AF0A7000500390033
:103A80008180D2000281D200878050000801590055
:103A9000090039000402E80007003A008301E80049
:103AA00005003A000000E8000C0032000200370078
:103AB0000000E900090032000080FD008080D30092
:103AC00001F0A00009F0A60001F0A1000370A10020
:103AD00081C0690004007800030037000000200066
:103AE000010020000000370045012000040009000B
:103AF000CF127800CF02780000000600851F780002
:103B000082017800820278004200A9008381D200FD
:103B10000380FD00F30FB20003003A006000B8001C
:103B20006011B800160037000338B000F207B20089
:103B3000360020000002EB004200A9000281D30001
:103B40008180D3000080D3004200AF000402E8006F
:103B50000603E900F8FF3A000270A100C419DD0075
:103B600003F0A10005F0A70003F0A00083016900A5
:103B70000101780080007800810042000000EB0025
:103B8000CF02780000000600881F7800280120007E
:103B900004000900B81F78008005EB006066B800DB
:103BA0000304780087047800FA7F20004200A9000F
:103BB0004220A90044C4DE00080465000800E000BB
:103BC000710032004200A9004220A900C4CCDE00EE
:103BD000890465000900E0006B003200088444009D
:103BE00009B0A70004003700F83FB10066003200BA
:103BF00065003900030037001A4020008542450067
:103C000061003100878669004200A9004220A900B6
:103C1000F300B2000340A000F700B2000740A0008C
:103C2000881F78000124B800002DB8000A05440060
:103C30008B854C000C80B0000224B8008B0544003A
:103C40000C864C00012CB8000005EB008B054400ED
:103C50000C864C000A80B0000034B8008B0544008C
:103C60000C864C000A80B0008005EB000324B800ED
:103C70000C0644000A854C000B80B000022CB800F2
:103C80000C0644000A854C000B80B0000134B800DB
:103C90000C0644000A854C000B80B000003CB800C4
:103CA0000C0644000A854C000B80B0000C00780024
:103CB0000006EB00032CB8000A0544008B854C007D
:103CC0000C80B0000234B8000A0544008B854C001B
:103CD0000C80B0000334B8008B0544000C864C0007
:103CE000013CB8000A0544008B854C000C80B000F4
:103CF000023CB8008B0544000C864C00033CB80025
:103D00000C0644008A0078000B0178008C017800D2
:103D1000540020004200A9008381D3000281D30017
:103D20008180D3000080D3000402E900F9FF3A004B
:103D30004F0478000804E80001037000010032001D
:103D40000200370003037100080032000340A7009F
:103D5000060037004200A9000080D2008180D20016
:103D60000281D2008381D2000804E9004444DD00CE
:103D700003F0A1000DF0A70003F0A0000340A10094
:103D800083016C00030037006000B8006001B800D8
:103D900000003700A8012000040009004F1478003B
:103DA0004F04780000000600851F7800C500200041
:103DB00005000900B51F780003047800820378002D
:103DC0000103780080027800830478003B472000DC
:103DD000C499DE00FA7F20008301650083855500C9
:103DE000F801B2000840A0000000EB008000EB00EA
:103DF0000001EB008001EB004200A9000884D30021
:103E00008783D3000683D3008582D3008381D300C8
:103E10000281D3008180D3000080D3008B05E900AC
:103E2000F5FF3A0009F0A600050037000000EA009F
:103E30008180EA000281EA008381EA000000370005
:103E40006501200005000900CF127800CF0278003C
:103E5000000006008C1F78008D1F78000004EB0026
:103E60008004EB000005EB008005EB000006EB0092
:103E70008006EB00E8002000090020001000FA0096
:103E80000C377C000884E900FDFF3B0005046A0054
:103E900002003A0007046B002F0032000004EB0020
:103EA0000D0420000D0420004200A9000080D20073
:103EB0008180D2000281D2008381D2000884D200A6
:103EC0008984D2000A85D2008B85D2000758E10090
:103ED00005003A0006D0E10003003A0005C8E10001
:103EE00001003A0004C0E100050039000404540058
:103EF00085845C0006055D0087855D004200A800A2
:103F0000080F7800190798002A0798003B079800C7
:103F10004E049000DE0490006E059000FE059000B7
:103F20000884D2008984D2000A85D2008B85D20011
:103F300048079800590798006A0798007B0798007F
:103F40001E0478009E0490002E059000BE0590008F
:103F50008D06E900D4FF3A004E009000DE0090008C
:103F60006E019000FE0190000080FA000000370012
:103F7000CF0678004F06780000000600851F780005
:103F8000C500200007000900B51F78002A00FA00CC
:103F9000880220000006EB000C377C000884E90052
:103FA000FDFF3B000900E0000E00320039179800C9
:103FB0004A179800470224000003EB006022B80073
:103FC00029179800470224000003EB006022B80084
:103FD000C41D020000000000AE1490008904E90036
:103FE000F7FF3A00BE1490004801200028179800FF
:103FF000D71C240056D62C006022B800000F980071
:10400000110F9800220F9800330F980048012000EC
:104010000817980004002000859E280046302200E2
:1040200077AC2800440F9800550F9800660F980051
:10403000770F980003F0A600040037004E1490009C
:104040000804E90008D0A0004817980003F0A10078
:10405000D41E0200000000004E149000BE14900018
:104060000900E0004220AF000844E800481798002B
:104070009E1490008004EB00191798004E0A9000DF
:10408000DE0A90006E0B9000FE0B90002A1F0200CB
:10409000000000009E1690000D00A700620037008F
:1040A000080F9800190F98002A0F98003B0F9800EE
:1040B0009E1690000D00A2001D1798000000E00061
:1040C00012003A00BE1490008904E8002E159000FA
:1040D000090455000D003200CE1590000B00E000E1
:1040E0000E0032007F846500080455000100320094
:1040F000410031000BF0A7003F0037000BE0A700A4
:10410000060037000002200037003700CE1590006F
:104110000C0022008B0566004B179800CE1590000E
:104120000BD0A6000F0037000BD0A100BE149000EA
:104130000900E0004220AE008B05E9008005EB009D
:104140004B179800000578002322AF00FEFF3700D0
:10415000D4022000241188000A0078008005EB00BA
:104160004B179800BE1490002E15900009045500BE
:104170000C003A008005EB004B1798000005780012
:104180002322AF00FEFF3700E40220002411880044
:10419000CE1590000C0022008B0566004B1798008E
:1041A0000A00780001032000CE1590000BD0A60075
:1041B0000D0037000BD0A100BE1490000900E000F4
:1041C0004220AE008B05E9008005EB004B179800FC
:1041D0002322AF00FEFF3700D40220002411880004
:1041E0000000EB0001032000008040002322AF000C
:1041F000FEFF370024A2B700AE1690008D06E9003E
:10420000190032002D1798004E089000DE0890002B
:104210006E099000FE099000A40020008002EB00CF
:104220006033B80099FF3700400F9800510F980095
:10423000620F9800730F98000002780081027800E6
:1042400002037800830378000E0890009E08900017
:104250002E099000BE0990009E1690000D00A2004D
:104260001D17980089FF37000080FA00A501200083
:1042700007000900CF127800CF0278000000060086
:10428000851F7800C500200004000900B51F7800D4
:1042900026C9BF000160EF007A1C02000000000088
:1042A000800278000103780027C9BF000160EF0099
:1042B0007A1C0200000000008003780001047800EE
:1042C00007007800880078000200200003382400EE
:1042D000B41C0200000000004300A90000017800A7
:1042E0008101780005007800860078009C160200A5
:1042F0000000000028A9B7005149880001002000F3
:10430000010078000160EF00240E020000000000B0
:104310008100E8002322AF00FEFF370024A2B7008F
:10432000600020000008E600F5FF370026C9BF0046
:104330000000FB0004002000FE130200000000004B
:1043400091002000010078000160EF00240E0200BF
:10435000000000008100E8002322AF00FEFF3700CC
:1043600024A2B700D00020000008E600F5FF3700C7
:1043700027C9BF000000FB0004002000FE1302005C
:104380000000000001012000010078000160EF0042
:10439000240E0200000000008100E8002322AF008C
:1043A000FEFF370024A2B700600120000008E600ED
:1043B000F5FF37005249800041498000000020008D
:1043C0007E1D020000000000290020009A002C0041
:1043D000BE1F0200000000002322AF00FEFF3700D6
:1043E000A4002000241188002889BF0051498000C2
:1043F0004501200004000900CF127800CF027800A8
:10440000000006000FC9BF0026E9B70010C9BF00B1
:1044100027E9B7004021020000000000EEA8B70025
:104420008147880011C9BF0026E9B70012C9BF0043
:1044300027E9B7004021020000000000F2A8B70001
:10444000A147880013C9BF0026E9B70014C9BF00FF
:1044500027E9B7004021020000000000F6A8B700DD
:10446000C147880001002000010078000160EF00D2
:104470004E0E0200000000008100E8002322AF0081
:10448000FEFF370024A2B700300020000008E6003D
:10449000F5FF37002229EF00000006000FC9BF001A
:1044A00026E9B70010C9BF0027E9B7004021020084
:1044B00000000000FAA8B700E147880011C9BF005A
:1044C00026E9B70012C9BF0027E9B7004021020062
:1044D00000000000FEA8B7000148880013C9BF0013
:1044E00026E9B70014C9BF0027E9B7004021020040
:1044F0000000000002A9B700214888000100200048
:10450000010078000160EF004E0E02000000000084
:104510008100E8002322AF00FEFF370024A2B7008D
:10452000300020000008E600F5FF37002229EF00E8
:10453000000006000FC9BF0026E9B70010C9BF0080
:1045400027E9B7004021020000000000E2A8B70000
:104550002147880011C9BF0026E9B70012C9BF0072
:1045600027E9B7004021020000000000E6A8B700DC
:104570004147880013C9BF0026E9B70014C9BF002E
:1045800027E9B7004021020000000000EAA8B700B8
:104590006147880001002000010078000160EF0001
:1045A0004E0E0200000000008100E8002322AF0050
:1045B000FEFF370024A2B700300020000008E6000C
:1045C000F5FF37002229EF00000006000F782200D7
:1045D000F07F220020A0B70000000000404424002B
:1045E0004005880081E0A8006004200042E7B70091
:1045F0007005200042E7B70042C7A900F063200021
:1046000080A6B70050F0230082A6B700C0F02300B8
:10461000A4A6B70050612100C0A6B7003001200059
:10462000C4A6B70020012000CAA6B70000302000B1
:10463000CCA6B70040012000CEA6B7006004200041
:1046400042E7B7007005200042E7B70042C7A80064
:104650004427EF00040028000411880004402000D3
:10466000141188002062A800041A20004411880058
:10467000B028EF00B228EF00B428EF00B628EF0012
:10468000B828EF00BA28EF00C48B2000F44588005A
:10469000048C200014468800448C20003446880096
:1046A000C828EF00848C200054468800CC28EF00F6
:1046B000C48C200074468800D028EF00048D2000B0
:1046C00094468800D428EF00448D2000B44688002A
:1046D000D828EF00848D2000D4468800DC28EF0025
:1046E000C48D2000F4468800540020000447880050
:1046F000A49929001447880094F1230024478800D6
:10470000E628EF00E828EF00EA28EF00EC28EF00A9
:10471000A49929007447880094F1230084478800F5
:10472000F228EF00F428EF00F628EF00F828EF0059
:10473000A4992900D447880094F12300E447880015
:10474000FE28EF000029EF000229EF000429EF0006
:104750000629EF000829EF000A29EF002069EF0081
:104760002229EF002CA3EF004C003700C006080000
:10477000000000004BF03F005C0A5800F63B8F0041
:1047800000C03C008B28AC003CBEF6003FD2D500F8
:1047900044168C0015D7BF0069005A002E1B8700F5
:1047A000993F9A005FAD4B0091E40100C05D11009C
:1047B0002F92E40081FB3F0038DA9100809DC50014
:1047C000E0BF6F0012C0B400C309AB003F6BC10073
:1047D000034EC100B545BF00F7400500FF005A0079
:1047E000EF3FF300A3E2F700D7FF010040C0B400A1
:1047F000FF053C0058FC3F003BD3C000B5BA8C001D
:10480000E23F3900D3C73D004179B2003F870D0038
:104810003C50D000AF623F00304B8D00A282AA0016
:1048200004400900A0404A000576030040EC9E00C9
:104830003788A60044F03F008F128D00299A5B0054
:10484000C73F0E00E0807C00A1D886003F294B00C6
:10485000FB95C200371A3F00C01409000C0000008D
:10486000000000000201E8006110E10004003A00CD
:104870009101BA003182BA0006C0BF0000000600F4
:104880006210E10002003A0007C0BF00000006000D
:1048900008C0BF000001EB00000006000600200079
:1048A0000000200090018800603B2200800078001A
:1048B0000001EB0032240200000000000BE0B70012
:1048C00032240200000000000AE0B7000500E0000A
:1048D0001900320005F0A60007003700322402005C
:1048E000000000000DE0B7003224020000000000CC
:1048F0000CE0B70005F0A10005E0A60008003700B5
:1049000005E0A1008502E900322402000000000059
:104910008043780005800900075B7800E5FF3700D9
:104920003224020000000000005B78008502E900EC
:10493000FBFF3A00DFFF370081E0A900040E2000F2
:104940001402880081E0A800030009002682BF004D
:104950008560A9009560A8002810020000000000F2
:1049600081E0A9004220EF0081E0A8001221EF00C1
:10497000840C200074088800040128009408880032
:104980001021EF0004F421006408880004012800CD
:10499000840888000421EF00A4A0210014088800E6
:1049A0000401280024088800E4002000840C88000A
:1049B000E4002000540C8800E4002000240C88004F
:1049C0008C21EF008621EF008021EF001449800048
:1049D0006120E100510035003610020000000000A7
:1049E00024A9B7002409E2000E003A0001002000CB
:1049F000010078000160EF00DE0E02000000000000
:104A00008100E8002322AF00FEFF370024A2B70098
:104A1000500020000008E600F5FF37002229EF00D3
:104A20003E0037000EC9BF000160EF000080B200F9
:104A3000110032001080B200120032003080B2004B
:104A4000130032001080B200140032007080B200F7
:104A5000150032001080B200160032003080B20023
:104A6000170032001080B20018003200F080B2004F
:104A7000190032001B003700221302000000000062
:104A80002600370012190200000000002300370042
:104A9000001B020000000000200037000A1C02007A
:104AA000000000001D003700341C02000000000060
:104AB0001A0037005E1C02000000000017003700DB
:104AC0000222020000000000140037004E22020003
:104AD00000000000110037009A22020000000000D0
:104AE0000E00370001002000010078000160EF0097
:104AF000DE0E0200000000008100E8002322AF006B
:104B0000FEFF370024A2B700500020000008E60096
:104B1000F5FF37002229EF0000003700ABFF370018
:044B20000040FE0053
:020000040001F9
:0807F800F7F900FF7F3F00FF4D
:00000001FF
;PIC24FJ48GA002
;CRC=BA99  CREATED="17-Nov-18 08:46"
