:081800000C14040000000000BC
:0818A000920E0400000000009C
:081BF8003220EF0083E0200021
:101C0000008041001040BA000160EF0000000600B3
:101C10005379000073740000656D000020520000CD
:101C20006561000064790000210D00000A000000D9
:101C30003220EF0043E22000008041001040BA0053
:101C40000160EF00000006000A72000065730000EA
:101C5000756C0000742000003D200000257300001A
:101C60002C200000257300000A000000851F78006A
:101C7000861F780014C8BF000000FB006200E1006E
:101C800008003C0084428000F48FB20002003A0059
:101C90001468EC000200370010C0B30014E8B7006D
:101CA0001D00370014C8BF000000FB006300E10006
:101CB00005003C00844280006220E10001003A00FF
:101CC0001468EC001400370014C8BF000000FB00CB
:101CD0006300E1001000340014C8BF000000FB00E6
:101CE000E402500004802000048342005088BF00BA
:101CF000004398001468EC0014C8BF000000FB000B
:101D00006800E1000400350014002000B4408800A1
:101D100010C0B30014E8B7004F037800CF0278007A
:101D2000000006004200F8003600F8003200F8001B
:101D3000801F7800200020000C000900B01F7800F0
:101D40002202AE00FEFF3700301180004AE8B700E3
:101D50004B68EF004A08F8005008F900360E020000
:101D6000000000008560A900A00120000C0009000F
:101D70004F1078004F0078003200F9003600F9006B
:101D80004200F90000400600851F7800C5002000D1
:101D900004000900B51F78008004EB00838468000C
:101DA0000103780080027800030478008203780041
:101DB0008180D2000180FD008180FB000100E000F5
:101DC0004E0032008381D2000380FD008381FB003E
:101DD0000300E000490032000000EB0003C05000A7
:101DE00003003900F047B000440031000300370021
:101DF0001048B100410039004000320085007800F1
:101E0000060178000270A000F20FB200F80FB200D5
:101E10000870A0009A0120008001EB000002EB0096
:101E2000878050000801590002003300040031008F
:101E300004003A0087804000080149000100370093
:101E40000400A0000A05E900070032004200A900D2
:101E50008180D2000281D2004200A9000482D20017
:101E60008381D200EEFF37000005EB000380A7005E
:101E700001003700060037004200A9008381D3002B
:101E80000370A1000482D3000A85D200020037004B
:101E90000000E900190032000AF0A700050039002F
:101EA0008180D2000281D200878050000801590051
:101EB000090039000402E80007003A008301E80045
:101EC00005003A000000E8000C0032000200370074
:101ED0000000E900090032000080FD008080D3008E
:101EE00001F0A00009F0A60001F0A1000370A1001C
:101EF00081C0690004007800030037000000200062
:101F00000100200000003700450120000400090006
:101F1000CF127800CF0278000000060000017800A0
:101F200081017800014078000080FD0000F0A000F1
:101F30008180D2000180FD008180FB00E408200048
:101F400081405200060032000000E0000400320030
:101F50004200A9000080D3008100E900FAFF3A00A6
:101F600003F0A600020037000000EA00000037007E
:101F700000000600851F7800C5002000040009004D
:101F8000B51F780000027800810278008303780092
:101F9000020378004200A9004220A9008180D200FB
:101FA0000180FD00F10FB2000100E0004B003200A3
:101FB0004200A9004220A9008381D2000380FD00D5
:101FC000F30FB2000300E000440032000080FB0089
:101FD00001C0410004003100F007B1003F003200B1
:101FE0003E003900020037001048B0003B003100CD
:101FF00007856A004200A9004220A900F50FB2003F
:102000000570A0004200A900F70FB2000770A00001
:102010000621B800062CB80083014C008900780026
:102020004200AF008100E8004200A900043CB80073
:1020300083014C0081804C00072CB80081004C00CB
:102040000000E8000100E0004220AF00010037007E
:10205000030037000300E0004220AF000500370016
:1020600001F0A700030037008381D2008180D200F5
:102070000000E900010178004200A9000370A600F9
:102080000900370007F02F00878161000310B000BE
:10209000600149000200E00003003A000300E00094
:1020A00001003A000000E8000080FD004200A900A5
:1020B0004220A9008080D3000AF0A70001F0A00010
:1020C00002F0A1000280FD00814069000380FD0054
:1020D0000341780002007800030037000000200070
:1020E0000100200000003700450120000400090025
:1020F000CF127800CF02780000000600851F78001C
:10210000861F7800E10820000600A10000F0A6006C
:10211000030037000600A0000000EA0000003700BE
:102120000000E0001400320000F0A70004003700B7
:102130004200A9000080D2008100E900FAFF3700C8
:102140000180FD004200A9008180D30000F0A100C1
:102150000080FD00814068000040B2000600A7003A
:1021600001F0A00007003700014078000170A000D6
:102170000140B200030037000000EB008000EB00DC
:10218000000037004F037800CF02780000000600FF
:10219000851F7800C500200003000900B51F7800E6
:1021A0008004EB00080028004300AF0083016C00AE
:1021B0000000E00003003A00FAFF27000A856000F3
:1021C0004220AE00010578008A856900010378008D
:1021D00083037800030678004220A9004200A9008A
:1021E0000683D2000680FD00F60FB2000600E00074
:1021F000A10032004220A9004200A9008783D2003A
:102200000780FD00F70FB2000700E0009F003200DA
:102210004220A9004200A9000638E1009C003200DB
:10222000A30033000900A1000910A0000684530098
:1022300007037800F10FB2000170A000F30FB200A5
:102240000370A000870220000838E100110033006D
:102250004220A9004200A9008180D3000080D30061
:102260000804E900FAFF3A000D0037008702200059
:102270000838E100090033004220A9004200A9000B
:102280008381D3000281D3000804E900FAFF3A00F9
:102290000F00370002007800830078004300370009
:1022A0000BF0A600110037000940A7008C0578004C
:1022B0000000EA000200320081C0EA00010037009D
:1022C0008100EA000940A7002B0037000700370013
:1022D0000BF0A600050037000201EA000200320000
:1022E00083C1EA00010037008301EA00F50FB20064
:1022F0004220A9004200A9000200400083C048001B
:102300004200AF000930A0000900A7000900370013
:102310000910A700010037000B0037000BF0A700E1
:10232000150037000930A700290037000960A00018
:102330001E0037000BF0A7000F0037000930A70080
:1023400023003700190037000920A1000BF0A70077
:10235000040037008A0578000930A7001C00370008
:10236000360037000940A00001C8B2000170A70084
:10237000CDFF37008A057800F10FB20081037000AD
:102380000A0032000170A700080037004220A900AF
:102390004200A9000080D2008180D2000603E9003B
:1023A0004220AF0031003700F6FF37000900A700D8
:1023B0008A0578000910A7008C0578000950A6004E
:1023C0001A0037000AF0A7000080A0001B003700A9
:1023D0004200A80081C0D3000080D3004200AF00BB
:1023E0000950A0000603E800200032000950A600B2
:1023F000080037000000E80006003A008140E800CD
:1024000004003A0081C0D3000080D3000603E80036
:10241000160032000900A7008A0578000910A700FD
:102420008C0578004220AF00100037000960A7003B
:102430008A0578000970A7008C05780001017000FA
:10244000230032000170A1000680FD004220A90097
:102450004200A9000683D30081006B0001F0A000B8
:102460000BF0A60001F0A1001900370000002000C9
:1024700001002000160037000AF0A70083016C005D
:102480000200780083007800110037001000370048
:10249000F30FB2000370A000F10FB2000170A000B2
:1024A0000BF0A7000370A1000920A00088FF3700EF
:1024B00007045300F10FB2000170A000F30FB20047
:1024C0000370A0000910A1000900A00067FF3700F9
:1024D0002501200003000900CF127800CF02780008
:1024E00000000600811F7800C140800080587800FD
:1024F0008048EB00CF0078001828EC0000000600B0
:10250000851F7800C500200003000900B51F780072
:1025100000F0A6000D0037000000EA000480A000D3
:1025200004F0A60009003700801F7800D0022000C8
:10253000801F78004F007800721202000000000037
:102540004F0078000480A1000860ED008002EB00DD
:10255000800378008404780004F0A1000404E00003
:1025600006003A0009F0A70002003700050020002D
:1025700010003700050020000E003700E642520030
:102580000B0039000003200009F0A6000002200023
:10259000801F78004F0078007212020000000000D7
:1025A0008502E900FAFF3B005500200001003700DA
:1025B00084027800640020000580A7000402E8007F
:1025C00005E0A00009F0A70005F0A00008712200B6
:1025D000110009008883D8003413020000000000B5
:1025E00081037800883E2000110009008883D8000C
:1025F0003413020000000000810378004806200028
:10260000110009008883D800341302000000000084
:1026100081037800A8002000110009008883D800F9
:1026200034130200000000000980A60006003700F5
:10263000D0022000801F78004F0078007212020044
:10264000000000000980A1000003200000C040003D
:1026500050018800801F78004F007800721202003D
:102660000000000024003700060320000000E00006
:102670000E003A0005E0A600170037000402E9004A
:102680000524E100020032004200AF000000060015
:102690000000E00005003A0005E0A6000E0037004B
:1026A00005F0A600060220000B00370005E0A1009F
:1026B0000980A6000800370000057800D00220003D
:1026C000801F78004F0078007212020000000000A6
:1026D0000980A1000A00780000404300811F7800B3
:1026E000801F78004F007800721202000000000086
:1026F000CF0078000000060025012000030009003B
:10270000CF127800CF02780000000600851F780005
:10271000861F7800871F78002288BF002141800033
:102720000200200003F82300C40E02000000000095
:102730008E0F02000000000026A8B700354180007F
:10274000CF2ADE00E4FF2F0004A8B8008002780042
:10275000E18242002288BF00214180000200200067
:10276000A3472400BA0F0200000000000003BE00CF
:1027700034418000833E200003A0B9007E10020097
:10278000000000004300A8000001780081017800EB
:102790000600780087007800C810020000000000E2
:1027A0000003BE00050078007E100200000000005B
:1027B0000601780087017800BA0F020000000000CF
:1027C0008E0F02000000000028A8B700A48220009D
:1027D000C44088002688BF00040020008012020048
:1027E00000000000E0C2B30072120200000000000E
:1027F0002888BF00040020008012020000000000B2
:10280000A482200004008800CF0378004F037800E2
:10281000CF027800000006000F782200F07F22002F
:1028200020A0B700000000004044240040058800BC
:1028300081E0A8006004200042E7B7007005200096
:1028400042E7B70042C7A900C0F02300A4A6B70022
:1028500000302000CCA6B7006004200042E7B7009B
:102860007005200042E7B70042C7A8004427EF00E8
:10287000040028000411880004402000141188007E
:102880002062A800041A20004411880010C0B30080
:1028900014E8B7001628EF002CA3EF000028EF0083
:1028A0000228EF000428EF000628EF000828EF00B8
:1028B0000A28EF000C28EF000E28EF001028EF0088
:1028C0001228EF0081E0A900040E20001402880005
:1028D00081E0A800030009002682BF008560A900EE
:1028E0009560A80081E0A9004220EF0081E0A800E7
:1028F00001002000010078000160EF00FC0D0200E3
:10290000000000008100E8002322AF00FEFF370036
:1029100024A2B700E00020000008E600F5FF370021
:10292000B44080006120E1003F0035001628EF0030
:10293000A18120000280200003000900B258780025
:102940001A08F8002208F9001C08F8002408F90009
:102950008613020000000000800278001A08F800C8
:102960002208F9001C08F8002408F9008613020068
:102970000000000000037800010020000100780042
:102980000160EF00180E0200000000008100E80066
:102990002322AF00FEFF370024A2B70090002000E2
:1029A0000008E600F5FF3700850078001104E0001C
:1029B000070032002322AF00FEFF370001409000E5
:1029C00024E2B7002562EF008100E800F7FF37003E
:1029D0002322AF00FEFF3700C4022000241188002C
:1029E0002322AF00FEFF37000402200024118800DC
:1029F000860078001104E000070032002322AF00B7
:102A0000FEFF37000140900024E2B7002562EF008E
:102A10008100E800F7FF37002322AF00FEFF3700F8
:102A2000A400200024118800BDFF37000040FE00F4
:020000040001F9
:0807F800F7F900FF7F3F00FF4D
:00000001FF
;PIC24FJ48GA002
;CRC=9926  CREATED="26-Oct-18 08:25"
