:081800004C1B04000000000075
:08184800A00E040000000000E6
:0818A000A40F04000000000089
:0818E800D20E04000000000014
:08193000040F04000000000098
:081BF8003220EF0083E0200021
:101C0000008041001040BA000160EF0000000600B3
:101C1000646F00006E650000000000003220EF00DD
:101C2000A3E12000008041001040BA000160EF00F5
:101C300000000600725F0000612000003D200000EF
:101C400025640000000000003220EF0003E32000C4
:101C5000008041001040BA000160EF000000060063
:101C6000725F0000622000003D200000256400003B
:101C7000000000003220EF0063E4200000804100FB
:101C80001040BA000160EF0000000600706F000015
:101C900073690000746900006F6E0000203D000051
:101CA00020250000642C000020250000640A0000AC
:101CB000000000003220EF0063E6200000804100B9
:101CC0001040BA000160EF0000000600725F0000E3
:101CD0007A2000003D200000256400000000000084
:101CE0003220EF00C3E72000008041001040BA001E
:101CF0000160EF0000000600706F000073690000D3
:101D0000746900006F6E0000203D00002025000077
:101D1000640A0000000000003220EF0083E9200088
:101D2000008041001040BA000160EF000000060092
:101D300072650000736500006E6400000000000022
:101D40004200F8003600F8003200F800801F7800EA
:101D5000200020000C000900B01F7800F608E20007
:101D600004003A00B028EC004220AF00B228EC009A
:101D700003003700B028ED004200AE00B228ED00AD
:101D80008400A900A00120000C0009004F10780079
:101D90004F0078003200F9003600F9004200F900E7
:101DA000004006004200F8003600F8003200F8005B
:101DB000801F7800200020000C000900B01F780070
:101DC000F808E20004003A00B428EC004220AF001A
:101DD000B628EC0003003700B428ED004200AE0046
:101DE000B628ED008680A900A00120000C000900A3
:101DF0004F1078004F0078003200F9003600F900EB
:101E00004200F900004006004200F8003600F800E9
:101E10003200F800801F7800200020000C0009002C
:101E2000B01F7800F408E20004003A00B828EC0083
:101E30004220AF00BA28EC0003003700B828ED00BC
:101E40004200AE00BA28ED0087A0A900A001200042
:101E50000C0009004F1078004F0078003200F900A4
:101E60003600F9004200F90000400600851F7800A6
:101E70001009E20032003A000EC9BF000000FB006A
:101E80006200E1000D003D00C44B8000F48FB20001
:101E900008003A000EC9BF000000FB00A48F20001C
:101EA000840240007889BF00804298000E69EC00EF
:101EB000010037000E69EF00210037000EC9BF0096
:101EC0000000FB006200E1000A003A000EC9BF00FA
:101ED0000000FB00A48F2000840240007889BF002E
:101EE0008042980078C9BF000FE9B7000E69EC0086
:101EF000130037000EC9BF000000FB006200E100C4
:101F00000F0034000EC9BF000000FB00A48F2000AA
:101F1000840240007889BF00804298000EC9BF004B
:101F20000000FB006800E100040035001400200000
:101F3000844888000E69EF00010037000E69EC004C
:101F4000CF027800000006004200F8003600F800DA
:101F50003200F800801F7800200020000C000900EB
:101F6000B01F78002202AE00FEFF37003011800063
:101F700074E9B7007569EF007409F8007809F90091
:101F8000360F0200000000008560A900A0012000BB
:101F90000C0009004F1078004F0078003200F90063
:101FA0003600F9004200F900004006009400A80045
:101FB0008200A9009680A8008220A90097A0A8000E
:101FC0008240A900000006000000E0004220AF00AF
:101FD000040037007B3E0900000000000000E9001B
:101FE000FCFF3A000000060064002000E40C8800BA
:101FF00004FA2000C40C8800401F2000E40F0200F7
:102000000000000001002000010078000160EF00E6
:10201000FC0D0200000000008100E8002322AF0058
:10202000FEFF370024A2B700300020000008E600C1
:10203000F5FF37001029EF000000060064002000C3
:10204000E40C880084A22000C40C8800401F2000FB
:10205000E40F0200000000000100200001007800F1
:102060000160EF00FC0D0200000000008100E800AC
:102070002322AF00FEFF370024A2B700300020006B
:102080000008E600F5FF37001029EF000000060009
:102090001429EF0002C9BF000000FB0016A9B70019
:1020A0001829EF00C44880006720E10009003D00C6
:1020B000A48F2000C3488000048041000002780003
:1020C000144078000000FB001429B4001829EC002B
:1020D000F4FF37001489BF001609E30004003A003A
:1020E00014002000040088000300370002003700BD
:1020F0000020EF000000370000000600851F780078
:10210000C4488000430620000418E10002003D009E
:1021100044062000C4488800C4488000C3F92F004A
:102120000418E10002003400C4F92F00C4488800FC
:10213000C44880006020E1000A003400CDE2A9001C
:10214000C9E2A900CD22A800C922A900F428EF0005
:10215000C44880006220B80080027800650C8800C6
:102160001A003700C44880006020E1000E003D00E6
:10217000CDE2A800C9E2A900CD22A900C922A90088
:1021800014002000A447880004002000C3488000F9
:1021900003005200000278006220B800800278003C
:1021A000650C880009003700CDE2A800C9E2A9004B
:1021B000CD22A800C922A90044062000640C880092
:1021C00040062000E40F020000000000CF0278006B
:1021D00000000600851F7800F448800043062000B8
:1021E0000418E10002003D0044062000F448880085
:1021F000F4488000C3F92F000418E1000200340005
:10220000C4F92F00F4488800F44880006020E10001
:102210000A003400C402A800C002A900C422A90018
:10222000C022A900F628EF00F44880006220B80020
:1022300080027800350C88001A003700F4488000CE
:102240006020E1000E003D00C402A900C002A90008
:10225000C422A800C022A90014002000B4478800AE
:1022600004002000F34880000300520000027800C0
:102270006220B80080027800350C88000900370021
:10228000C402A800C002A900C422A800C022A9005C
:1022900044062000340C880040062000E40F0200B1
:1022A00000000000CF02780000000600851F7800C3
:1022B000F4488000430620000418E10002003D00BD
:1022C00044062000F4488800F4488000C3F92F0039
:1022D0000418E10002003400C4F92F00F44888001B
:1022E000F44880006020E1000A003400CC42A800DD
:1022F000C842A900CC62A900C862A900F828EF0072
:10230000F44880006220B80080027800050C880044
:102310001A003700F44880006020E1000E003D0004
:10232000CC42A900C842A900CC62A800C862A9009A
:1023300014002000C447880004002000F3488000F7
:1023400003005200000278006220B800800278008A
:10235000050C880009003700CC42A800C842A9003B
:10236000CC62A800C862A90044062000040C8800C2
:1023700040062000E40F020000000000CF027800B9
:1023800000000600851F7800E4002000840C88000F
:10239000E4002000540C8800E4002000240C880095
:1023A0008C21EF008621EF008021EF00C4F92F007F
:1023B000C44888007E10020000000000C082A8000F
:1023C000C282AF00F9FF37001829EF007E1002002B
:1023D00000000000C4F92F00F4488800EA10020051
:1023E00000000000C4F92F00F448880056110200D4
:1023F00000000000C902A800CB02AF00F5FF3700C3
:102400001E29EF00EA100200000000001E29EF0064
:10241000561102000000000044062000F448880025
:10242000EA10020000000000C4F92F00F448880000
:102430005611020000000000C042A800C242AF00D6
:10244000F5FF37001E29EF00EA100200000000002F
:102450001E29EF00561102000000000001002000BC
:10246000010078000160EF00FC0D02000000000098
:102470008100E8002322AF00FEFF370024A2B7004E
:10248000300020000008E600F5FF37001029EF00BB
:10249000CF02780000000600851F7800041020009D
:1024A0002349800003A0B90080027800050078006D
:1024B0002609B40000A0B700CF0278000000060093
:1024C000851F7800C500200003000900B51F7800B3
:1024D00000F0A6000C0037000000EA000480A00015
:1024E00004F0A60008003700801F7800D00220000A
:1024F0002322AF00FEFF370024A2B7004F00780070
:102500000480A1000860ED008002EB0080037800E9
:102510008404780004F0A1000404E00006003A00FE
:1025200009F0A70002003700050020000F00370067
:10253000050020000D003700E64252000A00390075
:102540000003200009F0A600000220002322AF00B3
:10255000FEFF370024A2B7008502E900FBFF3B0025
:10256000550020000100370084027800640020003C
:102570000580A7000402E80005E0A00009F0A7001C
:1025800005F0A00008712200110009008883D8001E
:102590000C1302000000000081037800883E200038
:1025A000110009008883D8000C130200000000000D
:1025B0008103780048062000110009008883D800B4
:1025C0000C1302000000000081037800A800200026
:1025D000110009008883D8000C13020000000000DD
:1025E0000980A60005003700D00220002322AF009A
:1025F000FEFF370024A2B7000980A10000032000DD
:1026000000C04000500188002322AF00FEFF3700C9
:1026100024A2B70020003700060320000000E000DD
:102620000E003A0005E0A600160037000402E9009B
:102630000524E100020032004200AF000000060065
:102640000000E00005003A0005E0A6000D0037009C
:1026500005F0A600060220000A00370005E0A100F0
:102660000980A6000700370000057800D00220008E
:102670002322AF00FEFF370024A2B7000980A1008B
:102680000A007800004043002322AF00FEFF37001D
:1026900024A2B70000000600250120000300090065
:1026A000CF127800CF02780000000600851F780066
:1026B000861F780000027800810278000000EB009D
:1026C0008000EB000600A10005F0A6000600370020
:1026D0000600A0000402EA00020032008582EA003F
:1026E000010037008502EA00850172001300320004
:1026F0000001EB00610B20000270A700070037000B
:102700004200A9000482D2008582D2000080D2005B
:102710000281D2008100E900F7FF3A000180FD004C
:102720004200A9008180D30001F0A1000270A10045
:10273000814069000600A70001F0A0004F03780067
:10274000CF02780000000600851F7800C500200039
:1027500004000900B51F78000002780081027800AB
:1027600083037800020378004200A9004220A900F8
:102770008180D2000180FD00F10FB2000100E00075
:102780004B0032004200A9004220A9008381D20000
:102790000380FD00F30FB2000300E00044003200AC
:1027A0000080FB0001C0410004003100F007B100CF
:1027B0003F0032003E003900020037001048B000F0
:1027C0003B00310007856A004200A9004220A900B1
:1027D000F50FB2000570A0004200A900F70FB2008B
:1027E0000770A0000621B800062CB80083014C0039
:1027F000890078004200AF008100E8004200A90093
:10280000043CB80083014C0081804C00072CB800C8
:1028100081004C000000E8000100E0004220AF0011
:1028200001003700030037000300E0004220AF0042
:102830000500370001F0A700030037008381D200B4
:102840008180D2000000E900010178004200A90067
:102850000370A6000900370007F02F008781610090
:102860000310B000600149000200E00003003A00DC
:102870000300E00001003A000000E8000080FD00D5
:102880004200A9004220A9008080D3000AF0A700DE
:1028900001F0A00002F0A1000280FD00814069006B
:1028A0000380FD0003417800020078000300370038
:1028B000000020000100200000003700450120003A
:1028C00004000900CF127800CF0278000000060053
:1028D000851F7800C500200003000900B51F78009F
:1028E0008004EB00080028004300AF0083016C0067
:1028F0000000E00003003A00FAFF27000A856000AC
:102900004220AE00010578008A8569000103780045
:1029100083037800030678004220A9004200A90042
:102920000683D2000680FD00F60FB2000600E0002C
:10293000A10032004220A9004200A9008783D200F2
:102940000780FD00F70FB2000700E0009F00320093
:102950004220A9004200A9000638E1009C00320094
:10296000A30033000900A1000910A0000684530051
:1029700007037800F10FB2000170A000F30FB2005E
:102980000370A000870220000838E1001100330026
:102990004220A9004200A9008180D3000080D3001A
:1029A0000804E900FAFF3A000D0037008702200012
:1029B0000838E100090033004220A9004200A900C4
:1029C0008381D3000281D3000804E900FAFF3A00B2
:1029D0000F003700020078008300780043003700C2
:1029E0000BF0A600110037000940A7008C05780005
:1029F0000000EA000200320081C0EA000100370056
:102A00008100EA000940A7002B00370007003700CB
:102A10000BF0A600050037000201EA0002003200B8
:102A200083C1EA00010037008301EA00F50FB2001C
:102A30004220A9004200A9000200400083C04800D3
:102A40004200AF000930A0000900A70009003700CC
:102A50000910A700010037000B0037000BF0A7009A
:102A6000150037000930A700290037000960A000D1
:102A70001E0037000BF0A7000F0037000930A70039
:102A800023003700190037000920A1000BF0A70030
:102A9000040037008A0578000930A7001C003700C1
:102AA000360037000940A00001C8B2000170A7003D
:102AB000CDFF37008A057800F10FB2008103700066
:102AC0000A0032000170A700080037004220A90068
:102AD0004200A9000080D2008180D2000603E900F4
:102AE0004220AF0031003700F6FF37000900A70091
:102AF0008A0578000910A7008C0578000950A60007
:102B00001A0037000AF0A7000080A0001B00370061
:102B10004200A80081C0D3000080D3004200AF0073
:102B20000950A0000603E800200032000950A6006A
:102B3000080037000000E80006003A008140E80085
:102B400004003A0081C0D3000080D3000603E800EF
:102B5000160032000900A7008A0578000910A700B6
:102B60008C0578004220AF00100037000960A700F4
:102B70008A0578000970A7008C05780001017000B3
:102B8000230032000170A1000680FD004220A90050
:102B90004200A9000683D30081006B0001F0A00071
:102BA0000BF0A60001F0A100190037000000200082
:102BB00001002000160037000AF0A70083016C0016
:102BC0000200780083007800110037001000370001
:102BD000F30FB2000370A000F10FB2000170A0006B
:102BE0000BF0A7000370A1000920A00088FF3700A8
:102BF00007045300F10FB2000170A000F30FB20000
:102C00000370A0000910A1000900A00067FF3700B1
:102C10002501200003000900CF127800CF027800C0
:102C20000000060000017800810178000140780072
:102C30000080FD0000F0A0008180D2000180FD0036
:102C40008180FB00E4082000814052000600320031
:102C50000000E000040032004200A9000080D30020
:102C60008100E900FAFF3A0003F0A60002003700F5
:102C70000000EA000000370000000600851F780011
:102C8000861F7800871F7800F44880001349800071
:102C9000030052003CA9B70004498000234980008A
:102CA00003005A003EA9B7002689BF003C09B400C2
:102CB00026A9B700F44980004349800004804900F8
:102CC00028A9B700754980003C89BF00F149800000
:102CD0005613020000000000000178008101780016
:102CE0003089BF0091498000A41302000000000059
:102CF0000003BE002689BF00414980005613020030
:102D00000000000000017800810178003489BF00D4
:102D1000B1498000A4130200000000004300A90094
:102D200000017800810178000600780087007800B3
:102D300068140200000000000003BE00E4498000A7
:102D40005349800003005200F44980006349800029
:102D500083005A00561302000000000000017800B2
:102D6000810178003889BF00D1498000A413020096
:102D7000000000004300A9000001780081017800F4
:102D80000600780087007800681402000000000048
:102D90001216020000000000800A78003C09F800CA
:102DA0002A09F9003E09F8002C09F900CF03780040
:102DB0004F037800CF02780000000600861F7800DD
:102DC000871F7800881F7800891F78000002EB00B9
:102DD0008002EB000003EB008003EB0003046900BA
:102DE00011003200080220004200A9000080D20039
:102DF0008180D2000482D2008582D2000328E100C3
:102E000001003A0002A0E100030039000202520072
:102E100083825A004200A8000683D2008783D20032
:102E20000804E900F0FF3A00870078000600780007
:102E3000CF0478004F047800CF0378004F03780068
:102E400000000600851F7800C5002000070009006B
:102E5000B51F780001F0A600070037000000EA0067
:102E60000100320002003A008100EA000100370050
:102E70008180EA000480A0008002EB00000378005B
:102E8000810378000406780004F0A1000404E00047
:102E900001003A0018003700EB42520016003900DA
:102EA000054252000CF0A6000B0037000480A6007B
:102EB00007003700D00220002322AF00FEFF3700BA
:102EC00024A2B7000480A1008502E9000A003300B3
:102ED0000003200001003700000220002322AF0081
:102EE000FEFF370024A2B7008502E900FBFF3B008C
:102EF0000480A7000442E900E80020000900200047
:102F00001000FA000C377C000884E900FDFF3B004C
:102F100084027800A40020000580A7000402E800D5
:102F200005E0A0000CF0A70005F0A0000504E000FB
:102F3000010032008542E900040F7800150798006F
:102F4000060078008700780002A02C00A3B92300B7
:102F5000087122000DF0A1004300A900DE16020056
:102F6000000000000DF0A2000DF0A70007003700E0
:102F7000400798005107980000017800810178000F
:102F80002E009000BE009000F3FF3700420798002B
:102F90005307980024079800350798001E02780010
:102FA0009E029000060320000000E00011003A009D
:102FB00005E0A600110037000402E900040F7800C4
:102FC0000400E0000D0032000524E10002003200A0
:102FD0004200AF001800370005F0A60003003700DC
:102FE0000580A60010003700070037000602200009
:102FF0000D00370005E0A100150798009E02900023
:103000000580A600080037000580A100150798007C
:1030100000057800D00220002322AF00FEFF370019
:1030200024A2B7000A007800004043002322AF002A
:10303000FEFF370024A2B7004E009000DE00900093
:10304000A20020008001EB006100E10001003200DD
:10305000C1FF37000080FA00A50120000700090029
:10306000CF127800CF02780000000600851F78009C
:10307000861F7800FDC8BF00804278008502FB00F3
:10308000FEC8BF000CE0B7000603FB00254988001E
:10309000364988004C120200000000008000EB005E
:1030A00000F0A7008080EB0014A9B700B1488800A9
:1030B00001002000010078000160EF000E0E020008
:1030C000000000008100E8002322AF00FEFF37006F
:1030D00024A2B700500020000008E600F5FF3700EA
:1030E0001489BF00040020006012020000000000EC
:1030F000FFC8BF00804278008502FB0000C9BF0006
:103100000CE0B7000603FB0025498800364988001B
:103110004C120200000000008000EB0000F0A7004D
:103120008080EB0018A9B700D1488800010020007A
:10313000010078000160EF00240E02000000000092
:103140008100E8002322AF00FEFF370024A2B70071
:10315000500020000008E600F5FF37001889BF0086
:10316000040020006012020000000000A44880005B
:103170008345800083025200B4488000934580005C
:1031800003035A00050078008600780001F0A600CD
:103190000400370004002000050052000400200055
:1031A00086005A008002780001037800CE88BF00B4
:1031B0008000EB0000F0A7008080EB000608E10033
:1031C0006D003C00020035000500E1006A0031009E
:1031D000C4488000A345800083025200D448800088
:1031E000B345800003035A0005007800860078008C
:1031F00001F0A60004003700040020000500520082
:103200000400200086005A00800278000103780044
:10321000CE88BF008000EB0000F0A7008080EB00AC
:103220000608E10054003C00020035000500E10002
:10323000510031001409F8001E09F9001609F800C0
:103240002009F900B008F8002209F900B208F800D6
:103250002409F900C208F8002609F9000002EB0071
:1032600027E9AF000082EB0044498800C808F80055
:103270002A09F9000002EB002BE9AF000082EB0005
:1032800064498800C48B200074498800DC08F80079
:103290003009F900DE08F8003209F900E008F8000A
:1032A0003409F900E208F8003609F900E408F800EA
:1032B0003809F900E608F8003A09F9003E1602005C
:1032C000000000001809F8001E09F9001A09F800AA
:1032D0002009F900B408F8002209F900B608F8003E
:1032E0002409F900C408F8002609F9000002EB00DF
:1032F00027E9AF000082EB0044498800CA08F800C3
:103300002A09F9000002EB002BE9AF000082EB0074
:1033100064498800E48B200074498800E808F800BC
:103320003009F900EA08F8003209F900EC08F80061
:103330003409F900EE08F8003609F900F008F80041
:103340003809F900F208F8003A09F9003E160200BF
:1033500000000000BC08F8001E09F900EA10020095
:1033600000000000BE08F8001E09F9005611020016
:10337000000000007DFF3700010020000100780000
:103380000160EF003A0E0200000000008100E8003A
:103390002322AF00FEFF370024A2B700A0002000C8
:1033A0000008E600F5FF3700B088BF0091458000B7
:1033B0000400200022170200000000002322AF00BA
:1033C000FEFF3700C4022000241188002322AF0032
:1033D000FEFF37000402200024118800B488BF00DB
:1033E000B145800004002000221702000000000008
:1033F0002322AF00FEFF3700A40020002411880024
:1034000001002000010078000160EF00FC0D0200C7
:10341000000000008100E8002322AF00FEFF37001B
:1034200024A2B700300020000008E600F5FF3700B6
:103430001029EF004F037800CF027800000006004B
:10344000851F7800861F7800FDC8BF008042780085
:103450008502FB00FEC8BF000CE0B7000603FB00BE
:1034600025498800364988004C12020000000000FF
:103470008000EB0000F0A7008080EB0014A9B700EB
:10348000B148880001002000010078000160EF00D1
:103490005A0E0200000000008100E8002322AF0065
:1034A000FEFF370024A2B700500020000008E6000D
:1034B000F5FF37001489BF000400200060120200ED
:1034C00000000000A4488000C34580008302520031
:1034D000B4488000D345800003035A0005007800FB
:1034E0008600780001F0A6000400370004002000E8
:1034F000050052000400200086005A008002780077
:1035000001037800CE88BF008000EB0000F0A70028
:103510008080EB000608E10028003C000200350036
:103520000500E100250031001409F8001E09F9002A
:103530001609F8002009F900B808F8002209F90076
:10354000BA08F8002409F900C608F8002609F900AD
:103550000002EB0027E9AF000082EB00444988003D
:10356000CC08F8002A09F9000002EB002BE9AF00B3
:103570000082EB0064498800048C200074498800B4
:10358000D008F8003009F900D208F8003209F90033
:10359000D408F8003409F900D608F8003609F90013
:1035A000D808F8003809F900DA08F8003A09F900F3
:1035B0003E16020000000000C2FF3700C008F800FD
:1035C0001809F9007E100200000000000100200030
:1035D000010078000160EF00700E020000000000A2
:1035E0008100E8002322AF00FEFF370024A2B700CD
:1035F000A00020000008E600F5FF3700B888BF00F3
:10360000D1458000040020002217020000000000C5
:103610002322AF00FEFF3700A40020002411880001
:1036200001002000010078000160EF00FC0D0200A5
:10363000000000008100E8002322AF00FEFF3700F9
:1036400024A2B700300020000008E600F5FF370094
:103650001029EF004F037800CF0278000000060029
:1036600001002000010078000160EF00FC0D020065
:10367000000000008100E8002322AF00FEFF3700B9
:1036800024A2B700300020000008E600F5FF370054
:103690001029EF00000006000F782200F07F2200C2
:1036A00020A0B7000000000040442400400588002E
:1036B00081E0A8006004200042E7B7007005200008
:1036C00042E7B70042C7A900F063200080A6B70018
:1036D00050F0230082A6B700C0F02300A4A6B700D4
:1036E00050612100C0A6B70030012000C4A6B70079
:1036F00020012000CAA6B70000302000CCA6B700E9
:1037000040012000CEA6B7006004200042E7B700C9
:103710007005200042E7B70042C7A8004427EF0029
:1037200004002800041188000440200014118800BF
:103730002062A800041A200044118800B028EF007D
:10374000B228EF00B428EF00B628EF00B828EF0049
:10375000BA28EF00C228EF00C428EF00C628EF0007
:10376000C828EF00CA28EF00CC28EF005400200042
:1037700074468800A49929008446880094F12300A7
:1037800094468800A4702D00A446880034C223000B
:10379000B4468800D828EF0004F02300D4468800FF
:1037A000A4992900E446880094F12300F446880097
:1037B000A4702D000447880034C2230014478800F9
:1037C000E428EF0004F0230034478800A49929007E
:1037D0004447880094F1230054478800A4702D00CA
:1037E0006447880034C2230074478800F028EF0043
:1037F00004F0230094478800F428EF00F628EF0037
:10380000F828EF000E69EF001029EF002CA3EF005D
:103810004C003700C0060800000000004BF03F00DD
:103820005C0A5800F63B8F0000C03C008B28AC00BF
:103830003CBEF6003FD2D50044168C0015D7BF0021
:1038400069005A002E1B8700993F9A005FAD4B001C
:1038500091E40100C05D11002F92E40081FB3F0064
:1038600038DA9100809DC500E0BF6F0012C0B4003F
:10387000C309AB003F6BC100034EC100B545BF009B
:10388000F7400500FF005A00EF3FF300A3E2F70006
:10389000D7FF010040C0B400FF053C0058FC3F00CA
:1038A0003BD3C000B5BA8C00E23F3900D3C73D001E
:1038B0004179B2003F870D003C50D000AF623F001D
:1038C000304B8D00A282AA0004400900A0404A00AB
:1038D0000576030040EC9E003788A60044F03F00C8
:1038E0008F128D00299A5B00C73F0E00E0807C009C
:1038F000A1D886003F294B00FB95C200371A3F0034
:10390000C0140800FA000000000000000201E800F6
:103910006110E10004003A009101BA003182BA005E
:1039200006C0BF00000006006210E10002003A007D
:1039300007C0BF000000060008C0BF000001EB0088
:103940000000060006002000000020009001880012
:10395000A0C02100800078000001EB00861C02005E
:10396000000000000BE0B700861C02000000000011
:103970000AE0B7000500E0001900320005F0A600DB
:1039800007003700861C0200000000000DE0B700B1
:10399000861C0200000000000CE0B70005F0A1004A
:1039A00005E0A6000800370005E0A1008502E90057
:1039B000861C02000000000080437800058009009A
:1039C000075B7800E5FF3700861C0200000000005E
:1039D000005B78008502E900FBFF3A00DFFF37005B
:1039E00081E0A900040E20001402880081E0A800F4
:1039F000030009002682BF008560A9009560A80029
:103A0000D60F02000000000081E0A9004220EF0074
:103A100081E0A8001221EF00840C200074088800C7
:103A200004012800940888001021EF0004F421000C
:103A30006408880004012800840888000421EF003D
:103A4000A4A021001408880004012800240888008C
:103A5000E4002000840C8800E4002000540C88005E
:103A6000E4002000240C88008C21EF008621EF0068
:103A70008021EF00F40F020000000000803E2000D3
:103A8000E40F0200000000001E1002000000000011
:103A9000803E2000E40F0200000000008448800007
:103AA0006120E100420035004810020000000000E3
:103AB00012A9B7001209E2000E003A00010020002E
:103AC000010078000160EF008C0E02000000000091
:103AD0008100E8002322AF00FEFF370024A2B700D8
:103AE000500020000008E600F5FF37001029EF0025
:103AF0002F003700FCC8BF000160EF000080B2005B
:103B00000B0032001080B2000C0032003080B20096
:103B10000D0032001080B2000E0032007080B20042
:103B20000F0032001080B200100032001200370087
:103B3000C2110200000000001D003700361802000C
:103B4000000000001A003700201A020000000000E8
:103B5000170037001E10020000000000140037009C
:103B6000F40F02000000000011003700301B0200BB
:103B7000000000000E003700010020000100780066
:103B80000160EF008C0E0200000000008100E800E0
:103B90002322AF00FEFF370024A2B7005000200010
:103BA0000008E600F5FF37001029EF00000037009D
:083BB000BAFF37000040FE00DF
:020000040001F9
:0807F800F7F900FF7F3F00FF4D
:00000001FF
;PIC24FJ48GA002
;CRC=AEB2  CREATED="17-Nov-18 00:08"
