:08180000FE11040000000000CD
:08184800220E04000000000064
:0818A000020F0400000000002B
:0818E800480E0400000000009E
:081930006E0E0400000000002F
:081BF8003220EF0083E0200021
:101C0000008041001040BA000160EF0000000600B3
:101C1000646F00006E650000000000003220EF00DD
:101C2000A3E12000008041001040BA000160EF00F5
:101C30000000060072650000736500006E6400001D
:101C4000000000004200F8003600F8003200F80002
:101C5000801F7800200020000C000900B01F7800D1
:101C60000028EC004220AF000228EC008400A9000C
:101C7000A00120000C0009004F1078004F007800F0
:101C80003200F9003600F9004200F9000040060079
:101C90004200F8003600F8003200F800801F78009B
:101CA000200020000C000900B01F78000428EC0080
:101CB0004220AF000628EC008680A900A001200089
:101CC0000C0009004F1078004F0078003200F90036
:101CD0003600F9004200F900004006004200F8001A
:101CE0003600F8003200F800801F78002000200045
:101CF0000C000900B01F78000828EC004220AF005B
:101D00000A28EC0087A0A900A00120000C0009000F
:101D10004F1078004F0078003200F9003600F900CB
:101D20004200F90000400600851F78002808E20004
:101D300032003A0026C8BF000000FB006200E1004C
:101D40000D003D00E4418000F48FB20008003A002D
:101D500026C8BF000000FB00248120008402400050
:101D60003C88BF00804298002668EC0001003700E4
:101D70002668EF002100370026C8BF000000FB00E6
:101D80006200E1000A003A0026C8BF000000FB0024
:101D900024812000840240003C88BF0080429800DB
:101DA0003CC8BF0027E8B7002668EC0013003700E6
:101DB00026C8BF000000FB006200E1000F003400F5
:101DC00026C8BF000000FB002481200084024000E0
:101DD0003C88BF008042980026C8BF000000FB007E
:101DE0006800E10004003500140020004441880030
:101DF0002668EF00010037002668EC00CF0278006B
:101E0000000006004200F8003600F8003200F8003A
:101E1000801F7800200020000C000900B01F78000F
:101E20002202AE00FEFF3700301180003AE8B70012
:101E30003B68EF003A08F8003C08F900940E0200F5
:101E4000000000008560A900A00120000C0009002E
:101E50004F1078004F0078003200F9003600F9008A
:101E60004200F900004006009400A8008200A9008A
:101E70009680A8008220A90097A0A8008240A9000F
:101E8000000006000000E0004220AF000400370020
:101E90007B3E0900000000000000E900FCFF3A0062
:101EA0000000060064002000E40C8800042C2100DF
:101EB000C40C8800401F2000420F020000000000F8
:101EC00001002000010078000160EF00FC0D02001D
:101ED000000000008100E8002322AF00FEFF370071
:101EE00024A2B700300020000008E600F5FF37000C
:101EF0002828EF000000060064002000E40C8800A1
:101F000004642000C40C8800401F2000420F02001F
:101F10000000000001002000010078000160EF00D7
:101F2000FC0D0200000000008100E8002322AF0049
:101F3000FEFF370024A2B700300020000008E600B2
:101F4000F5FF37002828EF00000006002C28EF00DE
:101F50001AC8BF000000FB002EA8B7003028EF0011
:101F6000844180006720E10009003D0024812000B9
:101F70008341800004804100000278001440780012
:101F80000000FB002C28B4003028EC00F4FF3700E0
:101F90002C88BF002E08E30004003A001400200043
:101FA0000400880003003700020037000020EF0023
:101FB0000000370000000600851F780064418000A3
:101FC000430620000418E10002003D004406200002
:101FD0006441880064418000C3F92F000418E100C7
:101FE00002003400C4F92F0064418800644180007D
:101FF0006020E1000A003400CDE2A900C9E2A90096
:10200000CD22A800C922A9001028EF006441800059
:102010006220B80080027800650C88001A00370042
:10202000644180006020E1000E003D00CDE2A80088
:10203000C9E2A900CD22A900C922A90014002000EC
:1020400084408800040020006341800003005200A7
:10205000000278006220B80080027800650C8800D9
:1020600009003700CDE2A800C9E2A900CD22A800EE
:10207000C922A90044062000640C88004006200004
:10208000420F020000000000CF02780000000600AE
:10209000851F780064418000430620000418E10099
:1020A00002003D0044062000644188006441800035
:1020B000C3F92F000418E10002003400C4F92F0016
:1020C00064418800644180006020E1000A0034001F
:1020D000C402A800C002A900C422A900C022A9000D
:1020E0001028EF00644180006220B8008002780070
:1020F000350C88001A003700644180006020E10040
:102100000E003D00C402A900C002A900C422A8001C
:10211000C022A90014002000844088000400200090
:102120006341800003005200000278006220B80082
:1021300080027800350C880009003700C402A8002E
:10214000C002A900C422A800C022A90044062000A1
:10215000340C880040062000420F020000000000FE
:10216000CF02780000000600851F780064418000DF
:10217000430620000418E10002003D004406200050
:102180006441880064418000C3F92F000418E10015
:1021900002003400C4F92F006441880064418000CB
:1021A0006020E1000A003400CC42A800C842A90027
:1021B000CC62A900C862A9001028EF006441800029
:1021C0006220B80080027800050C88001A003700F1
:1021D000644180006020E1000E003D00CC42A90077
:1021E000C842A900CC62A800C862A900140020005F
:1021F00084408800040020006341800003005200F6
:10220000000278006220B80080027800050C880087
:1022100009003700CC42A800C842A900CC62A8003F
:10222000C862A90044062000040C88004006200073
:10223000420F020000000000CF02780000000600FC
:10224000851F7800E4002000840C8800E400200052
:10225000540C8800E4002000240C88008C21EF003E
:102260008621EF008021EF00C4F92F00644188002F
:10227000DC0F020000000000C082A800C282AF0094
:10228000F9FF37002C28EF00DC0F020000000000EF
:10229000C4F92F00644188004810020000000000CB
:1022A000C4F92F0064418800B4100200000000004F
:1022B000C902A800CB02AF00F5FF37002C28EF00C1
:1022C00048100200000000002C28EF00B4100200AB
:1022D000000000004406200064418800481002000D
:1022E00000000000C4F92F0064418800B41002000F
:1022F00000000000C042A800C242AF00F5FF370056
:102300002C28EF0048100200000000002C28EF00ED
:10231000B41002000000000001002000010078005D
:102320000160EF00FC0D0200000000008100E800E9
:102330002322AF00FEFF370024A2B70030002000A8
:102340000008E600F5FF37002828EF00CF027800EC
:102350000000060001002000010078000160EF008D
:10236000FC0D0200000000008100E8002322AF0005
:10237000FEFF370024A2B700300020000008E6006E
:10238000F5FF37002828EF000000060001002000BC
:10239000010078000160EF00FC0D02000000000069
:1023A0008100E8002322AF00FEFF370024A2B7001F
:1023B000300020000008E600F5FF37002828EF0075
:1023C0000000060001002000010078000160EF001D
:1023D000FC0D0200000000008100E8002322AF0095
:1023E000FEFF370024A2B700300020000008E600FE
:1023F000F5FF37002828EF00000006000F782200C4
:10240000F07F220020A0B70000000000404424001C
:102410004005880081E0A8006004200042E7B70082
:102420007005200042E7B70042C7A900F063200012
:1024300080A6B70050F0230082A6B700C0F02300AA
:10244000A4A6B70050612100C0A6B700300120004B
:10245000C4A6B70020012000CAA6B70000302000A3
:10246000CCA6B70040012000CEA6B7006004200033
:1024700042E7B7007005200042E7B70042C7A80056
:102480004427EF00040028000411880004402000C5
:10249000141188002062A800041A2000441188004A
:1024A0000028EF000228EF000428EF000628EF00C4
:1024B0000828EF000A28EF000C28EF000E28EF0094
:1024C0001028EF002668EF002828EF002CA3EF006B
:1024D0001228EF001428EF001628EF001828EF004C
:1024E0001A28EF001C28EF001E28EF002028EF001C
:1024F0002228EF002428EF0081E0A900040E20002C
:102500001402880081E0A800030009002682BF00B1
:102510008560A9009560A800340F0200000000004B
:1025200081E0A9004220EF0081E0A8001221EF0025
:10253000840C200074088800040128009408880096
:102540001021EF0004F42100640888000401280031
:10255000840888000421EF00A4A02100140888004A
:102560000401280024088800520F02000000000027
:10257000803E2000420F0200000000007C0F02009D
:1025800000000000803E2000420F0200000000001A
:10259000444180006120E10042003500A60F0200A6
:1025A000000000002AA8B7002A08E2000E003A0046
:1025B00001002000010078000160EF000E0E020013
:1025C000000000008100E8002322AF00FEFF37007A
:1025D00024A2B700500020000008E600F5FF3700F5
:1025E0002828EF002F00370014C8BF000160EF005B
:1025F0000080B2000B0032001080B2000C003200EC
:102600003080B2000D0032001080B2000E003200A7
:102610007080B2000F0032001080B2001000320053
:102620001200370020110200000000001D003700DA
:10263000AA110200000000001A003700C6110200B3
:1026400000000000170037007C0F020000000000AF
:1026500014003700520F0200000000001100370084
:10266000E2110200000000000E003700010020000F
:10267000010078000160EF000E0E02000000000073
:102680008100E8002322AF00FEFF370024A2B7003C
:10269000500020000008E600F5FF37002828EF0072
:0C26A00000003700BAFF37000040FE00C9
:020000040001F9
:0807F800F7F900FF7F3F00FF4D
:00000001FF
;PIC24FJ48GA002
;CRC=8C17  CREATED="16-Nov-18 19:35"
