:081800002810040000000000A4
:0818A000F60E04000000000038
:0818E8002E0F040000000000B7
:081BF8003220EF0083E0200021
:101C0000008041001040BA000160EF0000000600B3
:101C1000646F00006E650000000000003220EF00DD
:101C2000A3E12000008041001040BA000160EF00F5
:101C3000000006005379000073740000656D000019
:101C4000205200006561000064790000210D000051
:101C50000A0000003220EF0063E320000080410012
:101C60001040BA000160EF0000000600726500003D
:101C7000736500006E64000000000000C982A800C7
:101C8000CB82AF00FEFF3700830020000001EB0095
:101C900029020900000000007A0609000000000087
:101CA0004200A900CB82AF004200A80002C1D300CD
:101CB0008301E900F8FF3A008106090000000000F6
:101CC0000200780000000600C9A2A900CDA2A90068
:101CD000830020007E060900000000002EE8D700E7
:101CE0004200AF00CDA2A8004200AE00CDA2A900E4
:101CF00079060900000000008301E900F7FF3A00BF
:101D0000CDA2A80080060900000000000000060027
:101D1000851F78001E08E20032003A001CC8BF0090
:101D20000000FB006200E1000D003D0084418000E6
:101D3000F48FB20008003A001CC8BF000000FB008E
:101D400084802000840240003088BF0080429800D8
:101D50001C68EC00010037001C68EF002100370010
:101D60001CC8BF000000FB006200E1000A003A004E
:101D70001CC8BF000000FB008480200084024000DB
:101D80003088BF008042980030C8BF001DE8B7000F
:101D90001C68EC00130037001CC8BF000000FB00EB
:101DA0006200E1000F0034001CC8BF000000FB000F
:101DB00084802000840240003088BF008042980068
:101DC0001CC8BF000000FB006800E10004003500F3
:101DD00014002000F44088001C68EF000100370068
:101DE0001C68EC00CF027800000006004200F800FA
:101DF0003600F8003200F800801F78002000200034
:101E00000C000900B01F78003E0E02000000000028
:101E10002CE8B7002D68EF002CC8BF002EE8B700F3
:101E2000640E0200000000002C08F8003008F900E1
:101E3000880E0200000000008560A900A0012000BB
:101E40000C0009004F1078004F0078003200F900B4
:101E50003600F9004200F900004006004200F80098
:101E60003600F8003200F800801F780020002000C3
:101E70000C000900B01F7800C8C2A800CAC2AE009A
:101E8000040037000028EC004220AF000228EC00DC
:101E9000030037000028ED004200AE000228ED00EC
:101EA0008680A900A00120000C0009004F107800D6
:101EB0004F0078003200F9003600F9004200F900C6
:101EC000004006009680A8008220A90000000600BD
:101ED0002428EF0010C8BF000000FB0026A8B700B0
:101EE0002828EF00444180006720E10009003D0000
:101EF000848020004341800004804100000278007B
:101F0000144078000000FB002428B4002828EC00CE
:101F1000F4FF37002488BF002608E30004003A00DD
:101F2000140020000400880003003700020037007E
:101F30000020EF0000003700000006000100200034
:101F4000010078000160EF00FC0D020000000000BD
:101F50008100E800811F78004200F80081E0A900BC
:101F600042E0EF0081E0A8002EE8B700640E020016
:101F70000000000081E0A9004200F90081E0A80013
:101F8000CF007800300020000008E600ECFF3700AA
:101F90001E28EF000000060001002000010078006C
:101FA0000160EF00FC0D0200000000008100E8006D
:101FB000811F78004200F80081E0A90042E0EF00B4
:101FC00081E0A8002EE8B700640E020000000000C7
:101FD00081E0A9004200F90081E0A800CF0078006C
:101FE000300020000008E600ECFF37001E28EF005C
:101FF0000000060001002000010078000160EF00F1
:10200000FC0D0200000000008100E800811F780044
:102010004200F80081E0A90042E0EF0081E0A80062
:102020002EE8B700640E02000000000081E0A90065
:102030004200F90081E0A800CF00780030002000C5
:102040000008E600ECFF37001E28EF000000060045
:102050000F782200F07F220020A0B70000000000CF
:10206000404424004005880081E0A800600420006E
:1020700042E7B7007005200042E7B70042C7A90059
:10208000F063200080A6B700D0F02300A4A6B7001C
:1020900020312100C2A6B70040012000C4A6B7002D
:1020A00030002000CCA6B7006004200042E7B70053
:1020B0007005200042E7B70042C7A8004427EF00A0
:1020C000C9A2A900CDA2A8000028EF000228EF00B5
:1020D0000428EF000628EF001C68EF001E28EF0020
:1020E0002028EF002CA3EF000828EF000A28EF00BB
:1020F0000C28EF000E28EF001028EF001228EF0048
:102100001428EF001628EF001828EF001A28EF0017
:1021100081E0A900040E20001402880081E0A800DC
:10212000030009002682BF008560A9009560A80011
:10213000620F0200000000001221EF00840C20005A
:10214000740888000401280094088800E400200036
:10215000840C88008C21EF0081E0A9004220EF0070
:1021600081E0A80001002000010078000160EF007C
:102170000E0E0200000000008100E800811F7800C0
:102180004200F80081E0A90042E0EF0081E0A800F1
:102190002EE8B700640E02000000000081E0A900F4
:1021A0004200F90081E0A800CF007800E0002000A4
:1021B0000008E600ECFF3700F44080006120E100F9
:1021C00045003500680F02000000000022A8B7009B
:1021D0002208E20017003A00010020000100780008
:1021E0000160EF002A0E0200000000008100E800FC
:1021F000811F78004200F80081E0A90042E0EF0072
:1022000081E0A8002EE8B700640E02000000000084
:1022100081E0A9004200F90081E0A800CF00780029
:10222000500020000008E600ECFF37001E28EF00F9
:10223000290037000AC8BF000160EF000080B2002B
:10224000050032001080B200060032003080B2007B
:1022500007003200090037009E0F02000000000056
:102260001D003700CC0F0200000000001A003700EC
:10227000FA0F0200000000001700370001002000E4
:10228000010078000160EF002A0E0200000000004B
:102290008100E800811F78004200F80081E0A90079
:1022A00042E0EF0081E0A8002EE8B700640E0200D3
:1022B0000000000081E0A9004200F90081E0A800D0
:1022C000CF007800500020000008E600ECFF370047
:1022D0001E28EF0000003700B7FF37000040FE0067
:020000040001F9
:0807F800F7F900FF7F3F00FF4D
:00000001FF
;PIC24FJ48GA002
;CRC=CD61  CREATED="12-Nov-18 21:44"
