:0818000026180400000000009E
:101880001813040000000000961704000000000078
:0818E800FC0D040000000000EB
:081BF8004200F8003600F8007D
:101C00003200F800801F7800200020000C0009003E
:101C1000B01F7800C8C2A800CAC2AF0004003700D5
:101C2000B028EC004220AF00B228EC0003003700DF
:101C3000B028ED004200AE00B228ED008680A90079
:101C4000A00120000C0009004F1078004F00780020
:101C50003200F9003600F9004200F90000400600A9
:101C6000851F7800C500200003000900B51F78001B
:101C70008004EB00080028004300AF0083016C00E3
:101C80000000E00003003A00FAFF27000A85600028
:101C90004220AE00010578008A85690001037800C2
:101CA00083037800030678004220A9004200A900BF
:101CB0000683D2000680FD00F60FB2000600E000A9
:101CC000A10032004220A9004200A9008783D2006F
:101CD0000780FD00F70FB2000700E0009F00320010
:101CE0004220A9004200A9000638E1009C00320011
:101CF000A30033000900A1000910A00006845300CE
:101D000007037800F10FB2000170A000F30FB200DA
:101D10000370A000870220000838E10011003300A2
:101D20004220A9004200A9008180D3000080D30096
:101D30000804E900FAFF3A000D003700870220008E
:101D40000838E100090033004220A9004200A90040
:101D50008381D3000281D3000804E900FAFF3A002E
:101D60000F0037000200780083007800430037003E
:101D70000BF0A600110037000940A7008C05780081
:101D80000000EA000200320081C0EA0001003700D2
:101D90008100EA000940A7002B0037000700370048
:101DA0000BF0A600050037000201EA000200320035
:101DB00083C1EA00010037008301EA00F50FB20099
:101DC0004220A9004200A9000200400083C0480050
:101DD0004200AF000930A0000900A7000900370049
:101DE0000910A700010037000B0037000BF0A70017
:101DF000150037000930A700290037000960A0004E
:101E00001E0037000BF0A7000F0037000930A700B5
:101E100023003700190037000920A1000BF0A700AC
:101E2000040037008A0578000930A7001C0037003D
:101E3000360037000940A00001C8B2000170A700B9
:101E4000CDFF37008A057800F10FB20081037000E2
:101E50000A0032000170A700080037004220A900E4
:101E60004200A9000080D2008180D2000603E90070
:101E70004220AF0031003700F6FF37000900A7000D
:101E80008A0578000910A7008C0578000950A60083
:101E90001A0037000AF0A7000080A0001B003700DE
:101EA0004200A80081C0D3000080D3004200AF00F0
:101EB0000950A0000603E800200032000950A600E7
:101EC000080037000000E80006003A008140E80002
:101ED00004003A0081C0D3000080D3000603E8006C
:101EE000160032000900A7008A0578000910A70033
:101EF0008C0578004220AF00100037000960A70071
:101F00008A0578000970A7008C057800010170002F
:101F1000230032000170A1000680FD004220A900CC
:101F20004200A9000683D30081006B0001F0A000ED
:101F30000BF0A60001F0A1001900370000002000FE
:101F400001002000160037000AF0A70083016C0092
:101F5000020078008300780011003700100037007D
:101F6000F30FB2000370A000F10FB2000170A000E7
:101F70000BF0A7000370A1000920A00088FF370024
:101F800007045300F10FB2000170A000F30FB2007C
:101F90000370A0000910A1000900A00067FF37002E
:101FA0002501200003000900CF127800CF0278003D
:101FB00000000600851F7800C5002000040009000D
:101FC000B51F780000027800810278008303780052
:101FD000020378004200A9004220A9008180D200BB
:101FE0000180FD00F10FB2000100E0004B00320063
:101FF0004200A9004220A9008381D2000380FD0095
:10200000F30FB2000300E000440032000080FB0048
:1020100001C0410004003100F007B1003F00320070
:102020003E003900020037001048B0003B0031008C
:1020300007856A004200A9004220A900F50FB200FE
:102040000570A0004200A900F70FB2000770A000C1
:102050000621B800062CB80083014C0089007800E6
:102060004200AF008100E8004200A900043CB80033
:1020700083014C0081804C00072CB80081004C008B
:102080000000E8000100E0004220AF00010037003E
:10209000030037000300E0004220AF0005003700D6
:1020A00001F0A700030037008381D2008180D200B5
:1020B0000000E900010178004200A9000370A600B9
:1020C0000900370007F02F00878161000310B0007E
:1020D000600149000200E00003003A000300E00054
:1020E00001003A000000E8000080FD004200A90065
:1020F0004220A9008080D3000AF0A70001F0A000D0
:1021000002F0A1000280FD00814069000380FD0013
:10211000034178000200780003003700000020002F
:1021200001002000000037004501200004000900E4
:10213000CF127800CF02780000000600000178007E
:1021400081017800014078000080FD0000F0A000CF
:102150008180D2000180FD008180FB00E408200026
:1021600081405200060032000000E000040032000E
:102170004200A9000080D3008100E900FAFF3A0084
:1021800003F0A600020037000000EA00000037005C
:1021900000000600851F7800C5002000030009002C
:1021A000B51F780000F0A6000C0037000000EA0020
:1021B0000480A00004F0A60008003700801F78000B
:1021C000D00220002322AF00FEFF370024A2B70078
:1021D0004F0078000480A1000860ED008002EB0051
:1021E000800378008404780004F0A1000404E00077
:1021F00006003A0009F0A7000200370005002000A1
:102200000F003700050020000D003700E6425200A5
:102210000A0039000003200009F0A6000002200097
:102220002322AF00FEFF370024A2B7008502E90099
:10223000FBFF3B00550020000100370084027800BE
:10224000640020000580A7000402E80005E0A0006B
:1022500009F0A70005F0A000087122001100090094
:102260008883D80076110200000000008103780006
:10227000883E2000110009008883D80076110200F2
:1022800000000000810378004806200011000900CA
:102290008883D800761102000000000081037800D6
:1022A000A8002000110009008883D80076110200E0
:1022B000000000000980A60005003700D0022000C1
:1022C0002322AF00FEFF370024A2B7000980A1003F
:1022D0000003200000C04000500188002322AF000E
:1022E000FEFF370024A2B7002000370006032000BD
:1022F0000000E0000E003A0005E0A60016003700DE
:102300000402E9000524E100020032004200AF00AF
:10231000000006000000E00005003A0005E0A6000D
:102320000D00370005F0A600060220000A00370065
:1023300005E0A1000980A60007003700000578002D
:10234000D00220002322AF00FEFF370024A2B700F6
:102350000980A1000A007800004043002322AF005A
:10236000FEFF370024A2B700000006002501200070
:1023700003000900CF127800CF02780000000600A9
:10238000861F7800871F7800881F7800891F7800D3
:102390000002EB008002EB000003EB008003EB0087
:1023A0000304690011003200080220004200A90065
:1023B0000080D2008180D2000482D2008582D200C7
:1023C0000328E10001003A0002A0E1000300390007
:1023D0000202520083825A004200A8000683D20003
:1023E0008783D2000804E900F0FF3A0087007800F4
:1023F00006007800CF0478004F047800CF037800FF
:102400004F03780000000600851F7800C5002000FB
:1024100007000900B51F780001F0A600070037008B
:102420000000EA000100320002003A008100EA00E8
:10243000010037008180EA000480A0008002EB00E8
:1024400000037800810378000406780004F0A100FE
:102450000404E00001003A0018003700EB4252008B
:1024600016003900054252000CF0A6000B003700A0
:102470000480A60007003700D00220002322AF000E
:10248000FEFF370024A2B7000480A1008502E90006
:102490000A00330000032000010037000002200082
:1024A0002322AF00FEFF370024A2B7008502E90017
:1024B000FBFF3B000480A7000442E900E800200085
:1024C000090020001000FA000C377C000884E900A5
:1024D000FDFF3B0084027800A40020000580A700D7
:1024E0000402E80005E0A0000CF0A70005F0A00041
:1024F0000504E000010032008542E900040F780085
:1025000015079800060078008700780002A02C00CC
:10251000A3B92300087122000DF0A1004300A90017
:10252000C0110200000000000DF0A2000DF0A70095
:102530000700370040079800510798000001780015
:10254000810178002E009000BE009000F3FF37005C
:102550004207980053079800240798003507980011
:102560001E0278009E029000060320000000E0009A
:1025700011003A0005E0A600110037000402E9004E
:10258000040F78000400E0000D0032000524E10093
:10259000020032004200AF001800370005F0A6002C
:1025A000030037000580A600100037000700370041
:1025B000060220000D00370005E0A1001507980075
:1025C0009E0290000580A600080037000580A1004B
:1025D0001507980000057800D00220002322AF00E4
:1025E000FEFF370024A2B7000A0078000040430035
:1025F0002322AF00FEFF370024A2B7004E00900058
:10260000DE009000A20020008001EB006100E100EC
:1026100001003200C1FF37000080FA00A501200050
:1026200007000900CF127800CF02780000000600F2
:102630004200F8003600F8003200F800801F7800F1
:10264000200020000C000900B01F78004300A90002
:10265000B488BF00B1458000A2702D0033C22300B2
:10266000300E020000000000B4A8B700B145880099
:10267000B488BF00B145800002002000A3472400B9
:10268000DA0F0200000000009E10020000000000AF
:10269000800278000500780004002000CA100200C3
:1026A000000000002322AF00FEFF3700C40220001C
:1026B00024118800B088BF009145800004002000EC
:1026C00004120200000000002322AF00FEFF3700CA
:1026D000C402200024118800B888BF00D1458000C2
:1026E00002002000A3472400DA0F020000000000CF
:1026F0009E100200000000008002780005007800B3
:1027000004002000CA100200000000002322AF00D5
:10271000FEFF3700A40020002411880084E0A900F7
:10272000A00120000C0009004F1078004F00780035
:102730003200F9003600F9004200F90000400600BE
:10274000851F7800861F7800871F78000382680045
:1027500004F0A600060037004200A9004220A900AC
:1027600001F0A600260037004200A8002400370030
:102770000102780080027800030378008203780069
:102780008180D2000180FD008381D2000380FD00A2
:1027900081C051000500320004F0A6001800370087
:1027A0001000200042E0B600150037008440780099
:1027B000864178000170A1000370A10081C0510022
:1027C0000500320004F0A6000D00370010002000C4
:1027D00042E0B6000A003700858053000500320051
:1027E00004F0A600060037001000200042E0B6000A
:1027F000030037004200A900010037000000370045
:10280000CF0378004F037800CF0278000000060065
:10281000851F7800861F7800E10820000000E00096
:102820001200320000F0A700040037004200A900A7
:102830000080D2008100E900FAFF37000180FD002E
:102840004200A9008180D30000F0A1000080FD00BB
:10285000814068000040B200070037000140780066
:102860000170A0000140B200030037000000EB003F
:102870008000EB00000037004F037800CF027800A3
:1028800000000600851F7800861F78000429EF00ED
:1028900004F82300344888000E29EF0004F02B00D0
:1028A0008448880034AA2A0094488800A4D22300CF
:1028B000A4488800449B2000B448880064AB2B00E7
:1028C000C4488800A46A2B00D4488800F47C230004
:1028D000E4488800846E2F00F4488800B4482B0038
:1028E00004498800F888BF00D1478000020020001A
:1028F00003002000A01302000000000005003900C2
:10290000808F2000818F200003000900B01878001C
:10291000FBE8AA00F888BF00D147800032982F005A
:1029200023F22300DA0F0200000000009E100200D4
:102930000000000008E9B700F888BF00D147800018
:1029400032982F0023F22300DA0F0200000000006B
:10295000800278000103780008C9BF000160EF0021
:1029600008140200000000004300A80000017800E5
:10297000810178000500780086007800300E0200A2
:10298000000000000AA9B7006148880008C9BF001C
:102990006340600008E9B7000849E2000300320024
:1029A000444880006224E10009003A000A89BF001F
:1029B00061488000B2FD200093FC2300DA0F020082
:1029C0000000000000A9B700114888002600370069
:1029D000444880006124E10012003A004300A8004E
:1029E0000000200001F82300524880006348800066
:1029F000300E020000000000800278000103780021
:102A00000500780086007800B2FD200093FC2300CA
:102A1000DA0F02000000000000A9B700114888008A
:102A2000110037004300A8000A89BF0061488000F8
:102A30000200200003F82300300E02000000000016
:102A40008002780001037800050078008600780095
:102A5000B2FD200093FC2300DA0F0200000000000A
:102A600000A9B70011488800FC28EF0004F82300F3
:102A7000F44788000089BF001148800002488000A8
:102A800013488000DA0F02000000000000A9B70020
:102A9000114888000969EF00444880004822DE00A0
:102AA0006424E10021003E000489BF003148800019
:102AB0000248800013488000DA0F02000000000086
:102AC00004A9B7003148880009C9BF000160EF00C0
:102AD0004200DD00E490200004004000A40020003B
:102AE000301A7800301A78000500780086007800E7
:102AF0002248800033488000DA0F02000000000006
:102B00004300A9000001780081017800FC88BF0023
:102B1000F1478000300E020000000000FCA8B70062
:102B2000F14788000969EC00DBFF3700444880006A
:102B30006224E10003003200444880006124E10087
:102B400005003A00C08F2000C18F2000030009005B
:102B5000B0187800FFE8AA00FC88BF00F1478000A9
:102B60004F037800CF02780000000600851F780030
:102B7000861F78004300A800E688BF004147800018
:102B8000B2FD200093FC2300300E02000000000084
:102B90008002780001037800C5478800D647880086
:102BA00042140200000000000000BE004F03780045
:102BB000CF02780000000600851F7800861F78008D
:102BC000C888BF00514680004246800053468000BE
:102BD000DA0F020000000000800278000103780094
:102BE0003547880046478800B615020000000000FF
:102BF00080027800010378000500780086007800E4
:102C00000200200003142400DA0F0200000000007C
:102C1000CCA8B70071468800CC88BF007146800000
:102C20004F037800CF02780000000600851F78006F
:102C3000C500200004000900B51F78008004EB00E7
:102C40008384680001037800800278000304780020
:102C5000820378008180D2000180FD008180FB002A
:102C60000100E0004E0032008381D2000380FD00AD
:102C70008381FB000300E000490032000000EB000C
:102C800003C0500003003900F047B0004400310099
:102C9000030037001048B100410039004000320005
:102CA00085007800060178000270A000F20FB200E3
:102CB000F80FB2000870A0009A0120008001EB001C
:102CC0000002EB0087805000080159000200330029
:102CD0000400310004003A008780400008014900E8
:102CE000010037000400A0000A05E90007003200D7
:102CF0004200A9008180D2000281D2004200A900D6
:102D00000482D2008381D200EEFF37000005EB0081
:102D10000380A70001003700060037004200A90029
:102D20008381D3000370A1000482D3000A85D200FE
:102D3000020037000000E900190032000AF0A70085
:102D4000050039008180D2000281D20087805000C6
:102D500008015900090039000402E80007003A00A0
:102D60008301E80005003A000000E8000C00320092
:102D7000020037000000E900090032000080FD0079
:102D80008080D30001F0A00009F0A60001F0A100AE
:102D90000370A10081C069000400780003003700BF
:102DA0000000200001002000000037004501200045
:102DB00004000900CF127800CF027800000006005E
:102DC000851F7800861F7800D088BF00914680005C
:102DD00001F0A1008002780001037800050078006E
:102DE0008600780002002000832C2400DA0F020005
:102DF00000000000800278000103780005007800E0
:102E00008600780002002000031424001616020039
:102E1000000000009E10020000000000D4A8B700CF
:102E2000D408F8000000F9004F037800CF027800C2
:102E30000000060000002000010020002246800063
:102E400033468000A0130200000000000200390099
:102E5000C828EF000C003700C488BF00314680004E
:102E60000200200003002000A01302000000000068
:102E70000300390014002000444688000200370097
:102E80002400200044468800C808F8000000F9002B
:102E900000000600851F7800CC08E20007003A0019
:102EA00014002000E4458800CC42A800C842A900D4
:102EB000CC62A900C862A9001000370064468000F7
:102EC0006120E10006003A00BC28EF00CC42A900D6
:102ED000C842A900CC62A800C862A9000700370058
:102EE000644680006220E10004003A00CC42A80061
:102EF000C842A900CC62A800C862A900840C2000C6
:102F00007346800003A0B9008002780005027800B3
:102F100043062000110009000302D8008002780057
:102F2000650C8800CF027800000006004200F8001F
:102F30003600F8003200F800801F780020002000E2
:102F40000C000900B01F7800B408F800C808F900A8
:102F5000B608F800CA08F900DC15020000000000FD
:102F6000B8A8B700D1458800B808F800D008F90023
:102F7000BA08F800D208F900E016020000000000CC
:102F8000BEA8B700B808F800C408F900BA08F800ED
:102F9000C608F9001A17020000000000C0A8B70018
:102FA000C008F800CC08F900BE08F800CE08F90007
:102FB0004A170200000000004300A900B488BF00C7
:102FC000B145800072712B00138D2300300E02007A
:102FD00000000000B4A8B700B14588008500A90032
:102FE000A00120000C0009004F1078004F0078006D
:102FF0003200F9003600F9004200F90000400600F6
:103000001221EF00840C20007408880004012800BD
:10301000940888009500A800E4002000840C880033
:10302000000006001021EF0014272000640888002B
:10303000040328008408880094E0A800000006002B
:103040009680A8008220A900000006000F782200C8
:10305000F07F220020A0B7000000000040442400C0
:103060003005880081E0A8006004200042E7B70036
:103070007005200042E7B70042C7A900F0532000C6
:1030800080A6B700C0F02300A4A6B700203121001D
:10309000C2A6B70040012000C4A6B700003020003F
:1030A000CCA6B7006004200042E7B70070052000FE
:1030B00042E7B70042C7A8004427EF0004002800F9
:1030C0000411880004402000141188002062A80028
:1030D0002402200044118800B428EF00B628EF0035
:1030E000B828EF00BA28EF002CA3EF004A00370001
:1030F000C0060800000000004BF03F005C0A5800CA
:10310000F63B8F0000C03C008B28AC003CBEF600B4
:103110003FD2D50044168C0015D7BF0069005A0075
:103120002E1B8700993F9A005FAD4B0091E4010090
:10313000C05D11002F92E40081FB3F0038DA91005E
:10314000809DC500E0BF6F0012C0B400C309AB0092
:103150003F6BC100034EC100B545BF00F7400500FD
:10316000FF005A00EF3FF300A3E2F700D7FF010092
:1031700040C0B400FF053C0058FC3F003BD3C000FA
:10318000B5BA8C00E23F3900D3C73D004179B200A7
:103190003F870D003C50D000AF623F00304B8D00A8
:1031A000A282AA0004400900A0404A00057603005C
:1031B00040EC9E003788A60044F03F008F128D003F
:1031C000299A5B00C73F0E00E0807C00A1D88600F2
:1031D0003F294B00FB95C200371A3F00000000005A
:1031E0000201E8006110E10004003A009101BA0018
:1031F0003182BA0006C0BF00000006006210E10084
:1032000002003A0007C0BF000000060008C0BF006F
:103210000001EB0000000600060020000000200076
:103220009001880080872100800078000001EB0079
:10323000F0180200000000000BE0B700F0180200D8
:10324000000000000AE0B7000500E00019003200AD
:1032500005F0A60007003700F0180200000000008B
:103260000DE0B700F0180200000000000CE0B7000D
:1032700005F0A10005E0A6000800370005E0A10068
:103280008502E900F0180200000000008043780089
:1032900005800900075B7800E5FF3700F0180200A1
:1032A00000000000005B78008502E900FBFF3A00A7
:1032B000DFFF3700B028EF00B228EF00B428EF009E
:1032C000B628EF0081E0A900040E20001402880057
:1032D00081E0A8000018020000000000121802009F
:1032E00000000000201802000000000081E0A9009A
:1032F0004220EF0081E0A800FFFF37000040FE0001
:020000040001F9
:0807F800F7F900FF7F3F00FF4D
:00000001FF
;PIC24FJ48GA002
;CRC=A48B  CREATED="24-Sep-18 00:17"
