:08180000DE0F040000000000EF
:081880002C0F04000000000021
:0818E800140E040000000000D2
:081BF8003220EF0083E0200021
:101C0000008041001040BA000160EF0000000600B3
:101C10006475000074790000203D0000202500005C
:101C2000642000000A0000004200F8003600F800BE
:101C30003200F800801F7800200020000C0009000E
:101C4000B01F7800B428AA008680A900A001200057
:101C50000C0009004F1078004F0078003200F900A6
:101C60003600F9004200F90000400600851F7800A8
:101C7000C500200003000900B51F780000F0A60091
:101C80000C0037000000EA000480A00004F0A60069
:101C900008003700801F7800D00220002322AF0008
:101CA000FEFF370024A2B7004F0078000480A10097
:101CB0000860ED008002EB00800378008404780067
:101CC00004F0A1000404E00006003A0009F0A700B7
:101CD00002003700050020000F003700050020003B
:101CE0000D003700E64252000A00390000032000D0
:101CF00009F0A600000220002322AF00FEFF3700FB
:101D000024A2B7008502E900FBFF3B00550020003C
:101D10000100370084027800640020000580A700DD
:101D20000402E80005E0A00009F0A70005F0A0000B
:101D300008712200110009008883D800E20E020019
:101D40000000000081037800883E20001100090097
:101D50008883D800E20E02000000000081037800B2
:101D600048062000110009008883D800E20E020016
:101D70000000000081037800A80020001100090085
:101D80008883D800E20E0200000000000980A6004F
:101D900005003700D00220002322AF00FEFF3700ED
:101DA00024A2B7000980A1000003200000C0400069
:101DB000500188002322AF00FEFF370024A2B700A5
:101DC00020003700060320000000E0000E003A006B
:101DD00005E0A600160037000402E9000524E10032
:101DE000020032004200AF00000006000000E000E8
:101DF00005003A0005E0A6000D00370005F0A6003A
:101E0000060220000A00370005E0A1000980A600B4
:101E10000700370000057800D00220002322AF0021
:101E2000FEFF370024A2B7000980A1000A00780055
:101E3000004043002322AF00FEFF370024A2B7007A
:101E4000000006002501200003000900CF127800E1
:101E5000CF027800000006004200F8003600F800CB
:101E60003200F800801F7800200020000C000900DC
:101E7000B01F7800944580004486B20028003A00E4
:101E8000B228EF00844580004486B2000200320090
:101E9000B008E20001003A00B408AA00B408AE009D
:101EA00004003700844580006A02420084458800AF
:101EB00003003700844580006A005200B0A8B700D4
:101EC00001002000010078000160EF00FC0D02001D
:101ED000000000008100E8002322AF00FEFF370071
:101EE00024A2B700600020000008E600F5FF3700DC
:101EF000B088BF0004002000360E02000000000081
:101F00002322AF00FEFF37000402200024118800C6
:101F10002322AF00FEFF3700A40020002411880018
:101F2000B428AE0007003700047D2000040C8800B0
:101F3000844580007420B80080027800350C880049
:101F400006003700047D2000340C880084458000A2
:101F50007420B80080027800050C8800B228EC00DC
:101F600084E0A900A00120000C0009004F107800B7
:101F70004F0078003200F9003600F9004200F90005
:101F8000004006001021EF00047D20006408880056
:101F9000040128008408880094E0A8006400200060
:101FA000240C880064002000540C88000000060007
:101FB0009680A8008220A800000006000F7822006A
:101FC000F07F220020A0B700000000004044240061
:101FD0003005880081E0A8006004200042E7B700D7
:101FE0007005200042E7B70042C7A900F043200077
:101FF00080A6B70050F0230082A6B700C0F02300EF
:10200000A4A6B70020312100C2A6B70000302000EE
:10201000CCA6B7006004200042E7B700700520009E
:1020200042E7B70042C7A8004427EF000400280099
:102030000411880004402000141188002062A800C8
:10204000041A200044118800B028EF00B228EF00E5
:10205000B408A900B428A900B628EF00B828EF00FA
:10206000BA28EF00BC28EF002CA3EF004A0037008D
:10207000C0060800000000004BF03F005C0A58005A
:10208000F63B8F0000C03C008B28AC003CBEF60045
:102090003FD2D50044168C0015D7BF0069005A0006
:1020A0002E1B8700993F9A005FAD4B0091E4010021
:1020B000C05D11002F92E40081FB3F0038DA9100EF
:1020C000809DC500E0BF6F0012C0B400C309AB0023
:1020D0003F6BC100034EC100B545BF00F74005008E
:1020E000FF005A00EF3FF300A3E2F700D7FF010023
:1020F00040C0B400FF053C0058FC3F003BD3C0008B
:10210000B5BA8C00E23F3900D3C73D004179B20037
:102110003F870D003C50D000AF623F00304B8D0038
:10212000A282AA0004400900A0404A0005760300EC
:1021300040EC9E003788A60044F03F008F128D00CF
:10214000299A5B00C73F0E00E0807C00A1D8860082
:102150003F294B00FB95C200371A3F0000000000EA
:102160000201E8006110E10004003A009101BA00A8
:102170003182BA0006C0BF00000006006210E10014
:1021800002003A0007C0BF000000060008C0BF0000
:102190000001EB0000000600060020000000200007
:1021A0009001880080032100800078000001EB008E
:1021B000B0100200000000000BE0B700B0100200F9
:1021C000000000000AE0B7000500E000190032003E
:1021D00005F0A60007003700B01002000000000064
:1021E0000DE0B700B0100200000000000CE0B700E6
:1021F00005F0A10005E0A6000800370005E0A100F9
:102200008502E900B0100200000000008043780061
:1022100005800900075B7800E5FF3700B010020079
:1022200000000000005B78008502E900FBFF3A0037
:10223000DFFF370081E0A900040E200014028800AF
:1022400081E0A800C20F020000000000D80F0200C9
:102250000000000081E0A9004220EF0081E0A8001A
:08226000FFFF37000040FE0003
:020000040001F9
:0807F800F7F900FF7F3F00FF4D
:00000001FF
;PIC24FJ48GA002
;CRC=585C  CREATED="28-Sep-18 17:17"
