:081800002A130400000000009F
:10188000260E040000000000B80E04000000000056
:081BF8003220EF0083E0200021
:101C0000008041001040BA000160EF0000000600B3
:101C1000414E0000333A000020250000640D000012
:101C20000A0000003220EF00E3E1200000804100C4
:101C30001040BA000160EF000000060055200000CF
:101C40003D200000256400000A0000004200F8006A
:101C50003600F8003200F800801F780020002000D5
:101C60000C000900B01F780084E0A900A00120004A
:101C70000C0009004F1078004F0078003200F90086
:101C80003600F9004200F90000400600EA88BF0073
:101C900000F0A60003003700040020005347800036
:101CA00003005200ECA8B700644780004306200000
:101CB0000418E10002003D0044062000644788004B
:101CC000EC08F8000000F9000000060064478000FE
:101CD0006020E10002003400EE28EF000800370029
:101CE000644780006020E10003003D0014002000F4
:101CF00074478800020037002400200074478800E1
:101D0000EE08F8000000F90000000600851F7800CA
:101D1000EE08E20006003A00844780006220B80026
:101D200080027800050C88008621EF000E00370045
:101D3000744780006120E10006003A008021EF0036
:101D4000844780006220B80080027800350C88004B
:101D500005003700744780006220E10002003A006D
:101D60008021EF008621EF00CF02780000000600FE
:101D70004200F8003600F8003200F800801F7800BA
:101D8000200020000C000900B01F7800D408F800E3
:101D9000EA08F900460E020000000000E2A8B700C1
:101DA000D408F800EC08F900660E020000000000FC
:101DB000E4A8B700E408F800EE08F900E208F8002B
:101DC000F008F900860E020000000000B428EC00C4
:101DD0004220AF00B628EC008500A900A001200039
:101DE0000C0009004F1078004F0078003200F90015
:101DF0003600F9004200F900004006001221EF0011
:101E0000840C2000740888000401280094088800CD
:101E10009500A800E4002000240C8800E4002000C5
:101E2000540C8800000006001021EF001427200049
:101E300064088800040328008408880094E0A8004F
:101E4000000006009680A8008220A900000006007D
:101E500074FF2F00641988002223EF0004F0210092
:101E600024198800040E280004198800340020007A
:101E7000441988009E0009000000000000000600D0
:101E8000851F7800861F7800E10820000600A10069
:101E900000F0A600030037000600A0000000EA00E2
:101EA000000037000000E0001400320000F0A7003E
:101EB000040037004200A9000080D2008100E90040
:101EC000FAFF37000180FD004200A9008180D300A5
:101ED00000F0A1000080FD00814068000040B200D9
:101EE0000600A70001F0A0000700370001407800BD
:101EF0000170A0000140B200030037000000EB00B9
:101F00008000EB00000037004F037800CF0278001C
:101F100000000600851F7800C500200004000900AD
:101F2000B51F7800000278008102780083037800F2
:101F3000020378004200A9004220A9008180D2005B
:101F40000180FD00F10FB2000100E0004B00320003
:101F50004200A9004220A9008381D2000380FD0035
:101F6000F30FB2000300E000440032000080FB00E9
:101F700001C0410004003100F007B1003F00320011
:101F80003E003900020037001048B0003B0031002D
:101F900007856A004200A9004220A900F50FB2009F
:101FA0000570A0004200A900F70FB2000770A00062
:101FB0000621B800062CB80083014C008900780087
:101FC0004200AF008100E8004200A900043CB800D4
:101FD00083014C0081804C00072CB80081004C002C
:101FE0000000E8000100E0004220AF0001003700DF
:101FF000030037000300E0004220AF000500370077
:1020000001F0A700030037008381D2008180D20055
:102010000000E900010178004200A9000370A60059
:102020000900370007F02F00878161000310B0001E
:10203000600149000200E00003003A000300E000F4
:1020400001003A000000E8000080FD004200A90005
:102050004220A9008080D3000AF0A70001F0A00070
:1020600002F0A1000280FD00814069000380FD00B4
:1020700003417800020078000300370000002000D0
:102080000100200000003700450120000400090085
:10209000CF127800CF02780000000600851F78007C
:1020A000C500200003000900B51F78008004EB0084
:1020B000080028004300AF0083016C000000E0002E
:1020C00003003A00FAFF27000A8560004220AE00B4
:1020D000010578008A856900010378008303780090
:1020E000030678004220A9004200A9000683D2001E
:1020F0000680FD00F60FB2000600E000A1003200ED
:102100004220A9004200A9008783D2000780FD0079
:10211000F70FB2000700E0009F0032004220A90044
:102120004200A9000638E1009C003200A300330001
:102130000900A1000910A0000684530007037800DD
:10214000F10FB2000170A000F30FB2000370A00005
:10215000870220000838E100110033004220A90066
:102160004200A9008180D3000080D3000804E90068
:10217000FAFF3A000D003700870220000838E1001E
:10218000090033004220A9004200A9008381D30046
:102190000281D3000804E900FAFF3A000F0037007B
:1021A0000200780083007800430037000BF0A6009F
:1021B000110037000940A7008C0578000000EA00F4
:1021C0000200320081C0EA00010037008100EA000D
:1021D0000940A7002B003700070037000BF0A600CE
:1021E000050037000201EA000200320083C1EA0064
:1021F000010037008301EA00F50FB2004220A90078
:102200004200A9000200400083C048004200AF0025
:102210000930A0000900A700090037000910A70035
:10222000010037000B0037000BF0A7001500370046
:102230000930A700290037000960A0001E00370000
:102240000BF0A7000F0037000930A700230037006C
:10225000190037000920A1000BF0A7000400370087
:102260008A0578000930A7001C00370036003700C7
:102270000940A00001C8B2000170A700CDFF3700DF
:102280008A057800F10FB200810370000A00320065
:102290000170A700080037004220A9004200A900F1
:1022A0000080D2008180D2000603E9004220AF0006
:1022B00031003700F6FF37000900A7008A057800D3
:1022C0000910A7008C0578000950A6001A003700F5
:1022D0000AF0A7000080A0001B0037004200A80001
:1022E00081C0D3000080D3004200AF000950A0009D
:1022F0000603E800200032000950A600080037005D
:102300000000E80006003A008140E80004003A00BE
:1023100081C0D3000080D3000603E800160032001D
:102320000900A7008A0578000910A7008C0578002D
:102330004220AF00100037000960A7008A0578002E
:102340000970A7008C05780001017000230032009D
:102350000170A1000680FD004220A9004200A900F2
:102360000683D30081006B0001F0A0000BF0A600F3
:1023700001F0A1001900370000002000010020003A
:10238000160037000AF0A70083016C0002007800F5
:10239000830078001100370010003700F30FB200FF
:1023A0000370A000F10FB2000170A0000BF0A700B5
:1023B0000370A1000920A00088FF37000704530024
:1023C000F10FB2000170A000F30FB2000370A00083
:1023D0000910A1000900A00067FF370025012000B7
:1023E00003000900CF127800CF0278000000060039
:1023F0000001780081017800014078000080FD0034
:1024000000F0A0008180D2000180FD008180FB00EF
:10241000E408200081405200060032000000E00085
:10242000040032004200A9000080D3008100E900CE
:10243000FAFF3A0003F0A600020037000000EA00AD
:102440000000370000000600851F7800C50020004E
:1024500003000900B51F780000F0A6000C0037004B
:102460000000EA000480A00004F0A6000800370085
:10247000801F7800D00220002322AF00FEFF37002B
:1024800024A2B7004F0078000480A1000860ED008E
:102490008002EB00800378008404780004F0A1003F
:1024A0000404E00006003A0009F0A700020037002B
:1024B000050020000F003700050020000D00370048
:1024C000E64252000A0039000003200009F0A6008D
:1024D000000220002322AF00FEFF370024A2B70035
:1024E0008502E900FBFF3B0055002000010037009A
:1024F00084027800640020000580A7000402E80040
:1025000005E0A00009F0A70005F0A0000871220076
:10251000110009008883D800D012020000000000DA
:1025200081037800883E2000110009008883D800CC
:10253000D01202000000000081037800480620004D
:10254000110009008883D800D012020000000000AA
:1025500081037800A8002000110009008883D800BA
:10256000D0120200000000000980A600050037001C
:10257000D00220002322AF00FEFF370024A2B700C4
:102580000980A1000003200000C040005001880025
:102590002322AF00FEFF370024A2B700200037003F
:1025A000060320000000E0000E003A0005E0A6004F
:1025B000160037000402E9000524E10002003200A1
:1025C0004200AF00000006000000E00005003A00F5
:1025D00005E0A6000D00370005F0A6000602200069
:1025E0000A00370005E0A1000980A60007003700B7
:1025F00000057800D00220002322AF00FEFF370044
:1026000024A2B7000980A1000A007800004043001E
:102610002322AF00FEFF370024A2B700000006000F
:102620002501200003000900CF127800CF027800B6
:10263000000006000000E0004220AF000400370068
:102640007B3E0900000000000000E900FCFF3A00AA
:10265000000006000F782200F07F220020A0B700C3
:1026600000000000404424003005880081E0A800FC
:102670006004200042E7B7007005200042E7B70081
:1026800042C7A900C0F02300A4A6B7002031210052
:10269000C2A6B70040012000C4A6B7000030200049
:1026A000CCA6B7006004200042E7B7007005200008
:1026B00042E7B70042C7A8004427EF000400280003
:1026C0000411880004402000141188002062A80032
:1026D000041A200044118800B228EF00B828EF0047
:1026E000BA28EF00BC28EF00BE28EF00340220001B
:1026F00014468800A49929002446880094F12300F8
:1027000034468800D4CC2C0044468800C4D423002E
:1027100054468800CC28EF0004F02300744688005B
:10272000D028EF00D228EF00D428EF00D628EF0001
:1027300004202000C44688002CA3EF004A00370084
:10274000C0060800000000004BF03F005C0A580083
:10275000F63B8F0000C03C008B28AC003CBEF6006E
:102760003FD2D50044168C0015D7BF0069005A002F
:102770002E1B8700993F9A005FAD4B0091E401004A
:10278000C05D11002F92E40081FB3F0038DA910018
:10279000809DC500E0BF6F0012C0B400C309AB004C
:1027A0003F6BC100034EC100B545BF00F7400500B7
:1027B000FF005A00EF3FF300A3E2F700D7FF01004C
:1027C00040C0B400FF053C0058FC3F003BD3C000B4
:1027D000B5BA8C00E23F3900D3C73D004179B20061
:1027E0003F870D003C50D000AF623F00304B8D0062
:1027F000A282AA0004400900A0404A000576030016
:1028000040EC9E003788A60044F03F008F128D00F8
:10281000299A5B00C73F0E00E0807C00A1D88600AB
:102820003F294B00FB95C200371A3F000000000013
:102830000201E8006110E10004003A009101BA00D1
:102840003182BA0006C0BF00000006006210E1003D
:1028500002003A0007C0BF000000060008C0BF0029
:102860000001EB0000000600060020000000200030
:1028700090018800003A2100800078000001EB0000
:1028800018140200000000000BE0B700181402004A
:10289000000000000AE0B7000500E0001900320067
:1028A00005F0A60007003700181402000000000021
:1028B0000DE0B70018140200000000000CE0B700A3
:1028C00005F0A10005E0A6000800370005E0A10022
:1028D0008502E9001814020000000000804378001F
:1028E00005800900075B7800E5FF37001814020037
:1028F00000000000005B78008502E900FBFF3A0061
:10290000DFFF3700B428EF00B628EF00B828EF004B
:10291000BA28EF0081E0A900040E2000140288000C
:1029200081E0A800FE0E020000000000140F02006B
:1029300000000000220F02000000000081E0A9005A
:102940004220EF0081E0A800280F020000000000F4
:10295000B028EF002003A9002023A8002003AE0028
:10296000FEFF37000003F800B008F900C4468000FD
:102970008345800003005200D0A8B700D288BF0072
:10298000D008B400D2A8B700D088BF0000F0A600DD
:10299000030037000400200083468000030052003B
:1029A00080027800144680000520E10033003D00DD
:1029B000D088BF00400F0200000000000001780036
:1029C00081017800C488BF00314680008A0F020070
:1029D000000000008002780001037800D288BF0068
:1029E000400F020000000000000178008101780023
:1029F000C888BF00514680008A0F02000000000016
:102A00004300A900000178008101780005007800EA
:102A1000860078004E10020000000000800278005E
:102A20000103780084468000B34680000300520012
:102A3000400F0200000000000001780081017800D2
:102A4000CC88BF00714680008A0F020000000000A1
:102A50004300A9000001780081017800050078009A
:102A6000860078004E10020000000000F8110200FD
:102A700000000000D4A8B70001003700D428EF0000
:102A8000D008F800D608F9002003A9002023A800E8
:102A90002003AE00FEFF3700051880000100200073
:102AA000010078000160EF00FC0D02000000000052
:102AB0008100E8002322AF00FEFF370024A2B70008
:102AC000400020000008E600F5FF37000500780010
:102AD0000400200024120200000000002322AF00A6
:102AE000FEFF3700D4002000241188002322AF000D
:102AF000FEFF3700A4002000241188000100200000
:102B0000010078000160EF00120E020000000000DA
:102B10008100E8002322AF00FEFF370024A2B700A7
:102B2000300020000008E600F5FF3700D488BF0021
:102B30000400200024120200000000002322AF0045
:102B4000FEFF3700A400200024118800200320008D
:102B50001A130200000000007EFF37000040FE0054
:020000040001F9
:0807F800F7F900FF7F3F00FF4D
:00000001FF
;PIC24FJ48GA002
;CRC=A1E6  CREATED="28-Sep-18 20:10"
