:08180000EE14040000000000DA
:081BF8003220EF0083E0200021
:101C0000008041001040BA000160EF0000000600B3
:101C1000647500007479000020630000796300009F
:101C20006C6500003A200000256400000000000000
:101C30003220EF0043E22000008041001040BA0053
:101C40000160EF0000000600667200006571000090
:101C5000756500006E630000793A000020250000E1
:101C600064000000851F7800C50020000300090003
:101C7000B51F780000027800810278000203780026
:101C8000830378000000EB008000EB000001EB0014
:101C90008001EB000800A10007F0A6000500370056
:101CA0000800A0000402EA008582EA000683EA0038
:101CB0008783EA008504720002003A0087047300FB
:101CC00015003200394720000340A7000B00370001
:101CD0004200A9000482D2008582D2000683D2008D
:101CE0008783D2000080D2008180D2000281D2009E
:101CF0008381D2008904E900F3FF3A00C44CDD007F
:101D00004200A90009F0A1000340A10083816C00FA
:101D10000800A70003F0A00025012000030009002F
:101D2000CF127800CF02780000000600881F7800EC
:101D3000891F78008A1F78008784690009F0A6004F
:101D4000060037004200A9004220A90003F0A600C7
:101D5000340037004200A80032003700FA7F20002C
:101D6000030478008704780044C4DE00080465009A
:101D7000C4CCDE00890465000885540005003200EB
:101D800003F0A600270037001000200042E0B60054
:101D9000240037000304780087047800F301B200C0
:101DA000F701B2000340A1000740A10003C55300A2
:101DB0000500320008F0A6001A00370010002000CD
:101DC00042E0B6001700370002055300050032005C
:101DD00008F0A600130037001000200042E0B60013
:101DE00010003700018552000500320008F0A600FF
:101DF0000C0037001000200042E0B6000900370058
:101E0000000552000500320008F0A600050037006A
:101E10001000200042E0B600020037004200A90096
:101E2000000037004F057800CF0478004F04780099
:101E300000000600881F7800280120000400090027
:101E4000B81F78008786690003047800870478004B
:101E5000FA7F20004200A9004220A90044C4DE000D
:101E6000080465000800E0006C0032004200A90090
:101E70004220A900C4CCDE00890465000900E0000E
:101E8000660032000005EB0009065400030039002B
:101E9000FC3FB00061003100040037001B4020000F
:101EA0000B0656005D0039005C0032000004EB00B8
:101EB0008004EB000005EB008005EB00F301B200AD
:101EC0000340A000F701B2000740A0008C1F78007B
:101ED0006C03200004005000858058000601590062
:101EE00087815900020033000600310006003A00E5
:101EF00004004000858048000601490087814900B0
:101F0000010037000800A0000C06E9000B003200B9
:101F10004200A9000080D2008180D2000281D2005C
:101F20008381D2004200A9000884D2008984D200B3
:101F30000A85D2008B85D200E6FF37004F06780075
:101F40000B50A70001003700060037004200A9002F
:101F50008B85D3000A85D3008984D3000884D300FD
:101F6000030037000C06E9004200A9002B003200F4
:101F70004200AF00090037000080D2008180D2000B
:101F80000281D2008381D200040250008582580071
:101F90000603590087835900150039000804E8003A
:101FA00013003A008904E80011003A000A05E8002D
:101FB0000F003A008B05E8000D003A000C06E8001F
:101FC000160032000A0037000C06E9001300320048
:101FD0000B40A700060037004200A9000884D20089
:101FE0008984D2000A85D2008B85D200F8FF3700A1
:101FF0004466DD004200A9000CF0A1000DF0A7002E
:102000000CF0A0000B40A1008B016E000A017800CB
:1020100089007800080078000500370000002000E3
:102020000100200002002000030020000000370013
:10203000A8012000040009004F1478004F04780024
:1020400000000600851F7800861F7800871F780033
:102050002288BF002141800032418000434180003E
:1020600004002000050020000600200007FF2300D8
:10207000960E0200000000000F003A000000200051
:102080000100200002482800E30E240014418000D3
:102090002541800036418000474180001A0F020030
:1020A000000000002AA8B700614188007241880042
:1020B0008341880026003700000020000100200036
:1020C000020020000300240014418000254180000C
:1020D0003641800047418000960E0200000000005B
:1020E000010031001A003A002288BF00214180001F
:1020F00032418000434180000400200005002000A0
:1021000006802800370C2400960E02000000000014
:10211000010031000E003A00000020000100200004
:1021200002482800E3132400144180002541800068
:1021300036418000474180001A0F02000000000075
:102140002AA8B70061418800724188008341880055
:102150002A88BF0061418000724180008341800075
:10216000CF0378004F037800CF027800000006000C
:10217000851F7800C500200005000900B51F780004
:10218000030478008203780001037800800278005D
:10219000830478003B472000C499DE00FA7F2000CA
:1021A0008301650083855500F801B2000840A00056
:1021B0000000EB008000EB000001EB008001EB0071
:1021C0004200A9000884D3008783D3000683D3008C
:1021D0008582D3008381D3000281D3008180D30024
:1021E0000080D3008B05E900F5FF3A0009F0A60056
:1021F000050037000000EA008180EA000281EA0061
:102200008381EA0000003700650120000500090015
:10221000CF127800CF02780000000600881F7800F7
:102220002801200004000900B81F78008005EB0099
:102230006066B8000304780087047800FA7F200005
:102240004200A9004220A90044C4DE000804650041
:102250000800E000710032004200A9004220A900FD
:10226000C4CCDE00890465000900E0006B00320088
:102270000884440009B0A70004003700F83FB1000B
:102280006600320065003900030037001A40200064
:102290008542450061003100878669004200A9003F
:1022A0004220A900F300B2000340A000F700B200F2
:1022B0000740A000881F78000124B800002DB80056
:1022C0000A0544008B854C000C80B0000224B80045
:1022D0008B0544000C864C00012CB8000005EB0077
:1022E0008B0544000C864C000A80B0000034B80016
:1022F0008B0544000C864C000A80B0008005EB0082
:102300000324B8000C0644000A854C000B80B00082
:10231000022CB8000C0644000A854C000B80B0006B
:102320000134B8000C0644000A854C000B80B00054
:10233000003CB8000C0644000A854C000B80B0003D
:102340000C0078000006EB00032CB8000A054400DE
:102350008B854C000C80B0000234B8000A054400A4
:102360008B854C000C80B0000334B8008B05440012
:102370000C864C00013CB8000A0544008B854C00DB
:102380000C80B000023CB8008B0544000C864C0069
:10239000033CB8000C0644008A0078000B0178006A
:1023A0008C017800540020004200A9008381D300F2
:1023B0000281D3008180D3000080D3000402E900B1
:1023C000F9FF3A004F0478000804E80001037000A8
:1023D00001003200020037000303710008003200E0
:1023E0000340A700060037004200A9000080D20089
:1023F0008180D2000281D2008381D2000804E900EA
:102400004444DD0003F0A1000DF0A70003F0A0009C
:102410000340A10083016C00030037006000B80096
:102420006001B80000003700A80120000400090086
:102430004F1478004F04780000000600851F7800D4
:10244000C500200003000900B51F780000F0A600B9
:102450000C0037000000EA000480A00004F0A60091
:1024600008003700801F7800D00220002322AF0030
:10247000FEFF370024A2B7004F0078000480A100BF
:102480000860ED008002EB0080037800840478008F
:1024900004F0A1000404E00006003A0009F0A700DF
:1024A00002003700050020000F0037000500200063
:1024B0000D003700E64252000A00390000032000F8
:1024C00009F0A600000220002322AF00FEFF370023
:1024D00024A2B7008502E900FBFF3B005500200065
:1024E0000100370084027800640020000580A70006
:1024F0000402E80005E0A00009F0A70005F0A00034
:1025000008712200110009008883D800CA12020055
:102510000000000081037800883E200011000900BF
:102520008883D800CA1202000000000081037800EE
:1025300048062000110009008883D800CA12020052
:102540000000000081037800A800200011000900AD
:102550008883D800CA120200000000000980A6008B
:1025600005003700D00220002322AF00FEFF370015
:1025700024A2B7000980A1000003200000C0400091
:10258000500188002322AF00FEFF370024A2B700CD
:1025900020003700060320000000E0000E003A0093
:1025A00005E0A600160037000402E9000524E1005A
:1025B000020032004200AF00000006000000E00010
:1025C00005003A0005E0A6000D00370005F0A60062
:1025D000060220000A00370005E0A1000980A600DD
:1025E0000700370000057800D00220002322AF004A
:1025F000FEFF370024A2B7000980A1000A0078007E
:10260000004043002322AF00FEFF370024A2B700A2
:10261000000006002501200003000900CF12780009
:10262000CF02780000000600851F7800861F780022
:10263000871F7800881F78001088BF008001EB009A
:1026400000F0A7008081EB00830078000301780090
:10265000320E0200000000008002780001037800C2
:102660008203780003047800154188002641880021
:102670003741880048418800221002000000000015
:102680008002780001037800820378000304780058
:10269000851F7800861F7800871F78000500780066
:1026A0008600780007017800880178000400200087
:1026B0000500200006002000970524001A0F0200E4
:1026C00000000000CF0378004F037800CF027800AD
:1026D0008002780001037800820378000304780008
:1026E0001288BF008001EB0000F0A7008081EB00A2
:1026F0008300780003017800320E02000000000021
:10270000851F7800861F7800871F780000027800F8
:1027100005007800810278008600780002037800C6
:102720000701780083037800880178000E11020009
:1027300000000000CF0378004F037800CF0278003C
:10274000B81002000000000014A8B700010020002B
:10275000010078000160EF00FC0D020000000000A5
:102760008100E8002322AF00FEFF370024A2B7005B
:10277000B00020000008E600F5FF37001488BF0015
:10278000040020001E120200000000001088BF009C
:102790008001EB0000F0A7008081EB00830078004F
:1027A00003017800320E0200000000008002780071
:1027B0000103780082037800030478001541880043
:1027C00026418800374188004841880022100200D5
:1027D00000000000B8100200000000008002780035
:1027E00001002000010078000160EF00180E0200D7
:1027F000000000008100E8002322AF00FEFF370048
:1028000024A2B700A00020000008E600F5FF370072
:1028100005007800040020001E12020000000000E5
:102820001408F8000000F9004F047800CF03780086
:102830004F037800CF02780000000600851F780063
:10284000861F7800871F7800881F7800444080002A
:102850006120E1002B003A0081E0A900040E200075
:102860001402880081E0A8000888BF008001EB0006
:1028700000F0A7008081EB0083007800030178005E
:10288000320E020000000000800278000103780090
:1028900082037800030478001541880026418800EF
:1028A00037418800484188002210020000000000E3
:1028B000B810020000000000800278001021EF0034
:1028C00065088800040328008408880081E0A900C6
:1028D0004220EF0081E0A80064002000240C880062
:1028E0000808F8001008F9000A08F8001208F900B2
:1028F000141302000000000080027800050C88001C
:1029000031003700444080006220E1002E00350095
:1029100044408000037122000418E1002A003500C1
:1029200081E0A900040E20001402880081E0A800C4
:102930000888BF008001EB0000F0A7008081EB0059
:102940008300780003017800320E020000000000CE
:102950008002780001037800820378000304780085
:102960001541880026418800374188004841880089
:102970002210020000000000B81002000000000059
:10298000800278001021EF0065088800040128000B
:102990008408880081E0A9004220EF0081E0A800BF
:1029A00064002000240C88000808F8001008F900D2
:1029B0000A08F8001208F9001413020000000000D1
:1029C00080027800050C88004F047800CF0378005F
:1029D0004F037800CF027800000006000F78220035
:1029E000F07F220020A0B7000000000081E0A800D6
:1029F0006004200042E7B7007005200042E7B700FE
:102A000042C7A900F053200080A6B70060F0230061
:102A100082A6B700C0F02300A4A6B70020012000C2
:102A2000C2A6B70000302000CCA6B700600420008A
:102A300042E7B7007005200042E7B70042C7A80090
:102A40004427EF00040028000411880004402000FF
:102A5000141188002062A80024022000441188007C
:102A60002CA3EF000471220014408800A400200071
:102A7000244088000471220044408800A400200003
:102A8000544088001E14020000000000C8C2A800C4
:102A9000CAC2AF000E003700244080004486B20056
:102AA00002003A000428EF000300370024408000B1
:102AB00065024200244088000208F8000808F90076
:102AC0000408F8000A08F9001E14020000000000C3
:102AD000C8A2A800CAA2AF001000370014408000AE
:102AE000037122000418E10003003A0014002000E2
:102AF0001440880003003700144080006A20B800AA
:102B000002A8B7000208F8000808F9000408F80055
:102B10000A08F9001E14020000000000DBFF370065
:042B20000040FE0073
:020000040001F9
:0807F800F7F900FF7F3F00FF4D
:00000001FF
;PIC24FJ48GA002
;CRC=BB2C  CREATED="28-Sep-18 01:22"
